{"contracts/LibBoard.sol":{"Board":{"abi":[{"inputs":[],"name":"MoveInvalid","type":"error"},{"inputs":[],"name":"DOWN","outputs":[{"internalType":"uint8","name":"","type":"uint8"}],"stateMutability":"view","type":"function"},{"inputs":[],"name":"LEFT","outputs":[{"internalType":"uint8","name":"","type":"uint8"}],"stateMutability":"view","type":"function"},{"inputs":[],"name":"RIGHT","outputs":[{"internalType":"uint8","name":"","type":"uint8"}],"stateMutability":"view","type":"function"},{"inputs":[],"name":"UP","outputs":[{"internalType":"uint8","name":"","type":"uint8"}],"stateMutability":"view","type":"function"},{"inputs":[{"internalType":"bytes32","name":"seed","type":"bytes32"}],"name":"getStartPosition","outputs":[{"internalType":"uint128","name":"position","type":"uint128"}],"stateMutability":"pure","type":"function"},{"inputs":[{"internalType":"uint128","name":"board","type":"uint128"},{"internalType":"uint8","name":"pos","type":"uint8"}],"name":"getTile","outputs":[{"internalType":"uint8","name":"","type":"uint8"}],"stateMutability":"pure","type":"function"},{"inputs":[{"internalType":"uint128","name":"board","type":"uint128"},{"internalType":"bool","name":"isVertical","type":"bool"},{"internalType":"bool","name":"isLeft","type":"bool"}],"name":"processMove","outputs":[{"internalType":"uint128","name":"result","type":"uint128"}],"stateMutability":"pure","type":"function"},{"inputs":[{"internalType":"uint128","name":"board","type":"uint128"},{"internalType":"uint8","name":"move","type":"uint8"},{"internalType":"uint256","name":"seed","type":"uint256"}],"name":"processMove","outputs":[{"internalType":"uint128","name":"result","type":"uint128"}],"stateMutability":"pure","type":"function"},{"inputs":[{"internalType":"uint128","name":"board","type":"uint128"},{"internalType":"uint8","name":"pos","type":"uint8"},{"internalType":"uint8","name":"value","type":"uint8"}],"name":"setTile","outputs":[{"internalType":"uint128","name":"","type":"uint128"}],"stateMutability":"pure","type":"function"},{"inputs":[{"internalType":"uint128","name":"board","type":"uint128"}],"name":"validateStartPosition","outputs":[{"internalType":"bool","name":"","type":"bool"}],"stateMutability":"pure","type":"function"},{"inputs":[{"internalType":"uint128","name":"prevBoard","type":"uint128"},{"internalType":"uint8","name":"move","type":"uint8"},{"internalType":"uint128","name":"nextBoard","type":"uint128"},{"internalType":"uint256","name":"seed","type":"uint256"}],"name":"validateTransformation","outputs":[{"internalType":"bool","name":"","type":"bool"}],"stateMutability":"pure","type":"function"}],"evm":{"bytecode":{"linkReferences":{},"object":"610d15610039600b82828239805160001a607314602c57634e487b7160e01b600052600060045260246000fd5b30600052607381538281f3fe73000000000000000000000000000000000000000030146080604052600436106100b35760003560e01c806354c30fd91161007b57806354c30fd91461011d57806364cd1595146101305780637e8dbaf6146101385780638def51a114610163578063918a2a65146101765780639aff28fe1461018957600080fd5b806301df1995146100b85780630be27a04146100d75780631af4f970146100fa57806324f4ec51146101025780632b2f6a121461010a575b600080fd5b6100c0600181565b60405160ff90911681526020015b60405180910390f35b6100ea6100e53660046109ed565b61019c565b60405190151581526020016100ce565b6100c0600381565b6100c0600081565b6100ea610118366004610a38565b6101c6565b6100c061012b366004610a5a565b61025b565b6100c0600281565b61014b610146366004610a8d565b61028e565b6040516001600160801b0390911681526020016100ce565b61014b610171366004610ab6565b61033d565b61014b610184366004610af9565b610407565b61014b610197366004610b33565b61045b565b6000826001600160801b03166101b386868561045b565b6001600160801b03161495945050505050565b60006f030303030303030303030303030303036ffcfcfcfcfcfcfcfcfcfcfcfcfcfcfcfc83161515806102105750600183901c83166f7fffffffffffffffffffffffffffffff1615155b1561021e5750600092915050565b60005b6001600160801b038416156102515761023b600185610b86565b909316928061024981610ba5565b915050610221565b6002149392505050565b600061026882600f610bbe565b610273906008610bd7565b60ff16836001600160801b0316901c60ff1690505b92915050565b600080826040516020016102a491815260200190565b60408051601f198184030181529190528051602090910120905060006102cb601083610c10565b60109290921c91905060006102e1600f84610c10565b90508160ff168160ff16106102fe57806102fa81610c24565b9150505b6103346103268583605a610313606489610c10565b1161031f576001610407565b6002610407565b83605a610313606488610c10565b95945050505050565b60008080846103505763ffffffff61035f565b6cff000000ff000000ff000000ff5b6001600160681b0316905060005b60048110156103fd57600061038588841688886105f5565b90506000610394828989610738565b9050846001600160801b0316816001600160801b0316901b86179550876103bc5760206103bf565b60085b6103cc9060ff1686610c43565b9450876103da5760206103dd565b60085b60ff16896001600160801b0316901c98505050808060010191505061036d565b5050509392505050565b60008061041584600f610bbe565b610420906008610bd7565b60ff9081161b9050600061043585600f610bbe565b610440906008610bd7565b91199590951660ff938416919093161b919091179392505050565b600060048360ff16106104a35760405162461bcd60e51b815260206004820152600b60248201526a135bdd99525b9d985b1a5960aa1b60448201526064015b60405180910390fd5b6104c384600160ff861611156104ba600287610c62565b60ff161561033d565b9050806001600160801b0316846001600160801b0316036105145760405162461bcd60e51b815260206004820152600b60248201526a135bdd99525b9d985b1a5960aa1b604482015260640161049a565b60ff60781b600080805b6001600160801b03841615610594578385166001600160801b0316600003610571578161054a81610c84565b9250610557906008610ca6565b6001600160801b0316816001600160801b0316901b831792505b6008846001600160801b0316901c9350808061058c90610c84565b91505061051e565b6001600160801b038216156105ea5760006105b86001600160801b03841688610c10565b6105c3906008610cc8565b6001600160801b038516901c60ff1690506105e68682605a61031360648c610c10565b9550505b505050509392505050565b60008083610604576008610607565b60205b60ff16905060008361061a5760ff61062f565b846106295763ff00000061062f565b60ff60601b5b6001600160681b0316905060008561064b5763ffffffff61065a565b6cff000000ff000000ff000000ff5b6001600160681b031690505b6001600160801b0382161580159061068657506001600160801b03871615155b156103fd575b60008188166001600160801b03161180156106b057506001600160801b0387831616155b156106f357846106d557826001600160801b0316876001600160801b0316901c6106ec565b826001600160801b0316876001600160801b0316901b5b965061068c565b818716841793508461071a57826001600160801b0316826001600160801b0316901b610731565b826001600160801b0316826001600160801b0316901c5b9150610666565b6000808361074757600861074a565b60205b60ff16905060008361075d5760ff610772565b8461076c5763ff000000610772565b60ff60601b5b6001600160681b0316905060008561078e5763ffffffff61079d565b6cff000000ff000000ff000000ff5b6001600160681b031690506000856107ca57836001600160801b0316836001600160801b0316901b6107e1565b836001600160801b0316836001600160801b0316901c5b90506000866107f1576001610806565b87610800576301000000610806565b600160601b5b6001600160681b031690505b6001600160801b03838a1616156109b45760008761084757856001600160801b0316838b166001600160801b0316901c610860565b856001600160801b0316838b166001600160801b0316901b5b9050806001600160801b0316858b166001600160801b0316036108c3578761089d57856001600160801b03168a6001600160801b0316901c6108b4565b856001600160801b03168a6001600160801b0316901b5b99506108c0828b610c43565b99505b848a1687179650876108ea57856001600160801b0316856001600160801b0316901b610901565b856001600160801b0316856001600160801b0316901c5b94508761092357856001600160801b0316836001600160801b0316901b61093a565b856001600160801b0316836001600160801b0316901c5b92508761095c57856001600160801b0316826001600160801b0316901b610973565b856001600160801b0316826001600160801b0316901c5b91508761099557856001600160801b0316846001600160801b0316901b6109ac565b856001600160801b0316846001600160801b0316901c5b935050610812565b50505050509392505050565b80356001600160801b03811681146109d757600080fd5b919050565b803560ff811681146109d757600080fd5b60008060008060808587031215610a0357600080fd5b610a0c856109c0565b9350610a1a602086016109dc565b9250610a28604086016109c0565b9396929550929360600135925050565b600060208284031215610a4a57600080fd5b610a53826109c0565b9392505050565b60008060408385031215610a6d57600080fd5b610a76836109c0565b9150610a84602084016109dc565b90509250929050565b600060208284031215610a9f57600080fd5b5035919050565b803580151581146109d757600080fd5b600080600060608486031215610acb57600080fd5b610ad4846109c0565b9250610ae260208501610aa6565b9150610af060408501610aa6565b90509250925092565b600080600060608486031215610b0e57600080fd5b610b17846109c0565b9250610b25602085016109dc565b9150610af0604085016109dc565b600080600060608486031215610b4857600080fd5b610b51846109c0565b9250610b5f602085016109dc565b929592945050506040919091013590565b634e487b7160e01b600052601160045260246000fd5b6001600160801b03828116828216039081111561028857610288610b70565b600060018201610bb757610bb7610b70565b5060010190565b60ff828116828216039081111561028857610288610b70565b60ff8181168382160290811690818114610bf357610bf3610b70565b5092915050565b634e487b7160e01b600052601260045260246000fd5b600082610c1f57610c1f610bfa565b500690565b600060ff821660ff8103610c3a57610c3a610b70565b60010192915050565b6001600160801b03818116838216019081111561028857610288610b70565b600060ff831680610c7557610c75610bfa565b8060ff84160691505092915050565b60006001600160801b0382166001600160801b038103610c3a57610c3a610b70565b6001600160801b038181168382160290811690818114610bf357610bf3610b70565b808202811582820484141761028857610288610b7056fea264697066735822122047fad3f868fa8310c26e0e6a0cc22d203f2726b817122fbf094d7dd3f8af4f9264736f6c634300081c0033","opcodes":"PUSH2 0xD15 PUSH2 0x39 PUSH1 0xB DUP3 DUP3 DUP3 CODECOPY DUP1 MLOAD PUSH1 0x0 BYTE PUSH1 0x73 EQ PUSH1 0x2C JUMPI PUSH4 0x4E487B71 PUSH1 0xE0 SHL PUSH1 0x0 MSTORE PUSH1 0x0 PUSH1 0x4 MSTORE PUSH1 0x24 PUSH1 0x0 REVERT JUMPDEST ADDRESS PUSH1 0x0 MSTORE PUSH1 0x73 DUP2 MSTORE8 DUP3 DUP2 RETURN INVALID PUSH20 0x0 ADDRESS EQ PUSH1 0x80 PUSH1 0x40 MSTORE PUSH1 0x4 CALLDATASIZE LT PUSH2 0xB3 JUMPI PUSH1 0x0 CALLDATALOAD PUSH1 0xE0 SHR DUP1 PUSH4 0x54C30FD9 GT PUSH2 0x7B JUMPI DUP1 PUSH4 0x54C30FD9 EQ PUSH2 0x11D JUMPI DUP1 PUSH4 0x64CD1595 EQ PUSH2 0x130 JUMPI DUP1 PUSH4 0x7E8DBAF6 EQ PUSH2 0x138 JUMPI DUP1 PUSH4 0x8DEF51A1 EQ PUSH2 0x163 JUMPI DUP1 PUSH4 0x918A2A65 EQ PUSH2 0x176 JUMPI DUP1 PUSH4 0x9AFF28FE EQ PUSH2 0x189 JUMPI PUSH1 0x0 DUP1 REVERT JUMPDEST DUP1 PUSH4 0x1DF1995 EQ PUSH2 0xB8 JUMPI DUP1 PUSH4 0xBE27A04 EQ PUSH2 0xD7 JUMPI DUP1 PUSH4 0x1AF4F970 EQ PUSH2 0xFA JUMPI DUP1 PUSH4 0x24F4EC51 EQ PUSH2 0x102 JUMPI DUP1 PUSH4 0x2B2F6A12 EQ PUSH2 0x10A JUMPI JUMPDEST PUSH1 0x0 DUP1 REVERT JUMPDEST PUSH2 0xC0 PUSH1 0x1 DUP2 JUMP JUMPDEST PUSH1 0x40 MLOAD PUSH1 0xFF SWAP1 SWAP2 AND DUP2 MSTORE PUSH1 0x20 ADD JUMPDEST PUSH1 0x40 MLOAD DUP1 SWAP2 SUB SWAP1 RETURN JUMPDEST PUSH2 0xEA PUSH2 0xE5 CALLDATASIZE PUSH1 0x4 PUSH2 0x9ED JUMP JUMPDEST PUSH2 0x19C JUMP JUMPDEST PUSH1 0x40 MLOAD SWAP1 ISZERO ISZERO DUP2 MSTORE PUSH1 0x20 ADD PUSH2 0xCE JUMP JUMPDEST PUSH2 0xC0 PUSH1 0x3 DUP2 JUMP JUMPDEST PUSH2 0xC0 PUSH1 0x0 DUP2 JUMP JUMPDEST PUSH2 0xEA PUSH2 0x118 CALLDATASIZE PUSH1 0x4 PUSH2 0xA38 JUMP JUMPDEST PUSH2 0x1C6 JUMP JUMPDEST PUSH2 0xC0 PUSH2 0x12B CALLDATASIZE PUSH1 0x4 PUSH2 0xA5A JUMP JUMPDEST PUSH2 0x25B JUMP JUMPDEST PUSH2 0xC0 PUSH1 0x2 DUP2 JUMP JUMPDEST PUSH2 0x14B PUSH2 0x146 CALLDATASIZE PUSH1 0x4 PUSH2 0xA8D JUMP JUMPDEST PUSH2 0x28E JUMP JUMPDEST PUSH1 0x40 MLOAD PUSH1 0x1 PUSH1 0x1 PUSH1 0x80 SHL SUB SWAP1 SWAP2 AND DUP2 MSTORE PUSH1 0x20 ADD PUSH2 0xCE JUMP JUMPDEST PUSH2 0x14B PUSH2 0x171 CALLDATASIZE PUSH1 0x4 PUSH2 0xAB6 JUMP JUMPDEST PUSH2 0x33D JUMP JUMPDEST PUSH2 0x14B PUSH2 0x184 CALLDATASIZE PUSH1 0x4 PUSH2 0xAF9 JUMP JUMPDEST PUSH2 0x407 JUMP JUMPDEST PUSH2 0x14B PUSH2 0x197 CALLDATASIZE PUSH1 0x4 PUSH2 0xB33 JUMP JUMPDEST PUSH2 0x45B JUMP JUMPDEST PUSH1 0x0 DUP3 PUSH1 0x1 PUSH1 0x1 PUSH1 0x80 SHL SUB AND PUSH2 0x1B3 DUP7 DUP7 DUP6 PUSH2 0x45B JUMP JUMPDEST PUSH1 0x1 PUSH1 0x1 PUSH1 0x80 SHL SUB AND EQ SWAP6 SWAP5 POP POP POP POP POP JUMP JUMPDEST PUSH1 0x0 PUSH16 0x3030303030303030303030303030303 PUSH16 0xFCFCFCFCFCFCFCFCFCFCFCFCFCFCFCFC DUP4 AND ISZERO ISZERO DUP1 PUSH2 0x210 JUMPI POP PUSH1 0x1 DUP4 SWAP1 SHR DUP4 AND PUSH16 0x7FFFFFFFFFFFFFFFFFFFFFFFFFFFFFFF AND ISZERO ISZERO JUMPDEST ISZERO PUSH2 0x21E JUMPI POP PUSH1 0x0 SWAP3 SWAP2 POP POP JUMP JUMPDEST PUSH1 0x0 JUMPDEST PUSH1 0x1 PUSH1 0x1 PUSH1 0x80 SHL SUB DUP5 AND ISZERO PUSH2 0x251 JUMPI PUSH2 0x23B PUSH1 0x1 DUP6 PUSH2 0xB86 JUMP JUMPDEST SWAP1 SWAP4 AND SWAP3 DUP1 PUSH2 0x249 DUP2 PUSH2 0xBA5 JUMP JUMPDEST SWAP2 POP POP PUSH2 0x221 JUMP JUMPDEST PUSH1 0x2 EQ SWAP4 SWAP3 POP POP POP JUMP JUMPDEST PUSH1 0x0 PUSH2 0x268 DUP3 PUSH1 0xF PUSH2 0xBBE JUMP JUMPDEST PUSH2 0x273 SWAP1 PUSH1 0x8 PUSH2 0xBD7 JUMP JUMPDEST PUSH1 0xFF AND DUP4 PUSH1 0x1 PUSH1 0x1 PUSH1 0x80 SHL SUB AND SWAP1 SHR PUSH1 0xFF AND SWAP1 POP JUMPDEST SWAP3 SWAP2 POP POP JUMP JUMPDEST PUSH1 0x0 DUP1 DUP3 PUSH1 0x40 MLOAD PUSH1 0x20 ADD PUSH2 0x2A4 SWAP2 DUP2 MSTORE PUSH1 0x20 ADD SWAP1 JUMP JUMPDEST PUSH1 0x40 DUP1 MLOAD PUSH1 0x1F NOT DUP2 DUP5 SUB ADD DUP2 MSTORE SWAP2 SWAP1 MSTORE DUP1 MLOAD PUSH1 0x20 SWAP1 SWAP2 ADD KECCAK256 SWAP1 POP PUSH1 0x0 PUSH2 0x2CB PUSH1 0x10 DUP4 PUSH2 0xC10 JUMP JUMPDEST PUSH1 0x10 SWAP3 SWAP1 SWAP3 SHR SWAP2 SWAP1 POP PUSH1 0x0 PUSH2 0x2E1 PUSH1 0xF DUP5 PUSH2 0xC10 JUMP JUMPDEST SWAP1 POP DUP2 PUSH1 0xFF AND DUP2 PUSH1 0xFF AND LT PUSH2 0x2FE JUMPI DUP1 PUSH2 0x2FA DUP2 PUSH2 0xC24 JUMP JUMPDEST SWAP2 POP POP JUMPDEST PUSH2 0x334 PUSH2 0x326 DUP6 DUP4 PUSH1 0x5A PUSH2 0x313 PUSH1 0x64 DUP10 PUSH2 0xC10 JUMP JUMPDEST GT PUSH2 0x31F JUMPI PUSH1 0x1 PUSH2 0x407 JUMP JUMPDEST PUSH1 0x2 PUSH2 0x407 JUMP JUMPDEST DUP4 PUSH1 0x5A PUSH2 0x313 PUSH1 0x64 DUP9 PUSH2 0xC10 JUMP JUMPDEST SWAP6 SWAP5 POP POP POP POP POP JUMP JUMPDEST PUSH1 0x0 DUP1 DUP1 DUP5 PUSH2 0x350 JUMPI PUSH4 0xFFFFFFFF PUSH2 0x35F JUMP JUMPDEST PUSH13 0xFF000000FF000000FF000000FF JUMPDEST PUSH1 0x1 PUSH1 0x1 PUSH1 0x68 SHL SUB AND SWAP1 POP PUSH1 0x0 JUMPDEST PUSH1 0x4 DUP2 LT ISZERO PUSH2 0x3FD JUMPI PUSH1 0x0 PUSH2 0x385 DUP9 DUP5 AND DUP9 DUP9 PUSH2 0x5F5 JUMP JUMPDEST SWAP1 POP PUSH1 0x0 PUSH2 0x394 DUP3 DUP10 DUP10 PUSH2 0x738 JUMP JUMPDEST SWAP1 POP DUP5 PUSH1 0x1 PUSH1 0x1 PUSH1 0x80 SHL SUB AND DUP2 PUSH1 0x1 PUSH1 0x1 PUSH1 0x80 SHL SUB AND SWAP1 SHL DUP7 OR SWAP6 POP DUP8 PUSH2 0x3BC JUMPI PUSH1 0x20 PUSH2 0x3BF JUMP JUMPDEST PUSH1 0x8 JUMPDEST PUSH2 0x3CC SWAP1 PUSH1 0xFF AND DUP7 PUSH2 0xC43 JUMP JUMPDEST SWAP5 POP DUP8 PUSH2 0x3DA JUMPI PUSH1 0x20 PUSH2 0x3DD JUMP JUMPDEST PUSH1 0x8 JUMPDEST PUSH1 0xFF AND DUP10 PUSH1 0x1 PUSH1 0x1 PUSH1 0x80 SHL SUB AND SWAP1 SHR SWAP9 POP POP POP DUP1 DUP1 PUSH1 0x1 ADD SWAP2 POP POP PUSH2 0x36D JUMP JUMPDEST POP POP POP SWAP4 SWAP3 POP POP POP JUMP JUMPDEST PUSH1 0x0 DUP1 PUSH2 0x415 DUP5 PUSH1 0xF PUSH2 0xBBE JUMP JUMPDEST PUSH2 0x420 SWAP1 PUSH1 0x8 PUSH2 0xBD7 JUMP JUMPDEST PUSH1 0xFF SWAP1 DUP2 AND SHL SWAP1 POP PUSH1 0x0 PUSH2 0x435 DUP6 PUSH1 0xF PUSH2 0xBBE JUMP JUMPDEST PUSH2 0x440 SWAP1 PUSH1 0x8 PUSH2 0xBD7 JUMP JUMPDEST SWAP2 NOT SWAP6 SWAP1 SWAP6 AND PUSH1 0xFF SWAP4 DUP5 AND SWAP2 SWAP1 SWAP4 AND SHL SWAP2 SWAP1 SWAP2 OR SWAP4 SWAP3 POP POP POP JUMP JUMPDEST PUSH1 0x0 PUSH1 0x4 DUP4 PUSH1 0xFF AND LT PUSH2 0x4A3 JUMPI PUSH1 0x40 MLOAD PUSH3 0x461BCD PUSH1 0xE5 SHL DUP2 MSTORE PUSH1 0x20 PUSH1 0x4 DUP3 ADD MSTORE PUSH1 0xB PUSH1 0x24 DUP3 ADD MSTORE PUSH11 0x135BDD99525B9D985B1A59 PUSH1 0xAA SHL PUSH1 0x44 DUP3 ADD MSTORE PUSH1 0x64 ADD JUMPDEST PUSH1 0x40 MLOAD DUP1 SWAP2 SUB SWAP1 REVERT JUMPDEST PUSH2 0x4C3 DUP5 PUSH1 0x1 PUSH1 0xFF DUP7 AND GT ISZERO PUSH2 0x4BA PUSH1 0x2 DUP8 PUSH2 0xC62 JUMP JUMPDEST PUSH1 0xFF AND ISZERO PUSH2 0x33D JUMP JUMPDEST SWAP1 POP DUP1 PUSH1 0x1 PUSH1 0x1 PUSH1 0x80 SHL SUB AND DUP5 PUSH1 0x1 PUSH1 0x1 PUSH1 0x80 SHL SUB AND SUB PUSH2 0x514 JUMPI PUSH1 0x40 MLOAD PUSH3 0x461BCD PUSH1 0xE5 SHL DUP2 MSTORE PUSH1 0x20 PUSH1 0x4 DUP3 ADD MSTORE PUSH1 0xB PUSH1 0x24 DUP3 ADD MSTORE PUSH11 0x135BDD99525B9D985B1A59 PUSH1 0xAA SHL PUSH1 0x44 DUP3 ADD MSTORE PUSH1 0x64 ADD PUSH2 0x49A JUMP JUMPDEST PUSH1 0xFF PUSH1 0x78 SHL PUSH1 0x0 DUP1 DUP1 JUMPDEST PUSH1 0x1 PUSH1 0x1 PUSH1 0x80 SHL SUB DUP5 AND ISZERO PUSH2 0x594 JUMPI DUP4 DUP6 AND PUSH1 0x1 PUSH1 0x1 PUSH1 0x80 SHL SUB AND PUSH1 0x0 SUB PUSH2 0x571 JUMPI DUP2 PUSH2 0x54A DUP2 PUSH2 0xC84 JUMP JUMPDEST SWAP3 POP PUSH2 0x557 SWAP1 PUSH1 0x8 PUSH2 0xCA6 JUMP JUMPDEST PUSH1 0x1 PUSH1 0x1 PUSH1 0x80 SHL SUB AND DUP2 PUSH1 0x1 PUSH1 0x1 PUSH1 0x80 SHL SUB AND SWAP1 SHL DUP4 OR SWAP3 POP JUMPDEST PUSH1 0x8 DUP5 PUSH1 0x1 PUSH1 0x1 PUSH1 0x80 SHL SUB AND SWAP1 SHR SWAP4 POP DUP1 DUP1 PUSH2 0x58C SWAP1 PUSH2 0xC84 JUMP JUMPDEST SWAP2 POP POP PUSH2 0x51E JUMP JUMPDEST PUSH1 0x1 PUSH1 0x1 PUSH1 0x80 SHL SUB DUP3 AND ISZERO PUSH2 0x5EA JUMPI PUSH1 0x0 PUSH2 0x5B8 PUSH1 0x1 PUSH1 0x1 PUSH1 0x80 SHL SUB DUP5 AND DUP9 PUSH2 0xC10 JUMP JUMPDEST PUSH2 0x5C3 SWAP1 PUSH1 0x8 PUSH2 0xCC8 JUMP JUMPDEST PUSH1 0x1 PUSH1 0x1 PUSH1 0x80 SHL SUB DUP6 AND SWAP1 SHR PUSH1 0xFF AND SWAP1 POP PUSH2 0x5E6 DUP7 DUP3 PUSH1 0x5A PUSH2 0x313 PUSH1 0x64 DUP13 PUSH2 0xC10 JUMP JUMPDEST SWAP6 POP POP JUMPDEST POP POP POP POP SWAP4 SWAP3 POP POP POP JUMP JUMPDEST PUSH1 0x0 DUP1 DUP4 PUSH2 0x604 JUMPI PUSH1 0x8 PUSH2 0x607 JUMP JUMPDEST PUSH1 0x20 JUMPDEST PUSH1 0xFF AND SWAP1 POP PUSH1 0x0 DUP4 PUSH2 0x61A JUMPI PUSH1 0xFF PUSH2 0x62F JUMP JUMPDEST DUP5 PUSH2 0x629 JUMPI PUSH4 0xFF000000 PUSH2 0x62F JUMP JUMPDEST PUSH1 0xFF PUSH1 0x60 SHL JUMPDEST PUSH1 0x1 PUSH1 0x1 PUSH1 0x68 SHL SUB AND SWAP1 POP PUSH1 0x0 DUP6 PUSH2 0x64B JUMPI PUSH4 0xFFFFFFFF PUSH2 0x65A JUMP JUMPDEST PUSH13 0xFF000000FF000000FF000000FF JUMPDEST PUSH1 0x1 PUSH1 0x1 PUSH1 0x68 SHL SUB AND SWAP1 POP JUMPDEST PUSH1 0x1 PUSH1 0x1 PUSH1 0x80 SHL SUB DUP3 AND ISZERO DUP1 ISZERO SWAP1 PUSH2 0x686 JUMPI POP PUSH1 0x1 PUSH1 0x1 PUSH1 0x80 SHL SUB DUP8 AND ISZERO ISZERO JUMPDEST ISZERO PUSH2 0x3FD JUMPI JUMPDEST PUSH1 0x0 DUP2 DUP9 AND PUSH1 0x1 PUSH1 0x1 PUSH1 0x80 SHL SUB AND GT DUP1 ISZERO PUSH2 0x6B0 JUMPI POP PUSH1 0x1 PUSH1 0x1 PUSH1 0x80 SHL SUB DUP8 DUP4 AND AND ISZERO JUMPDEST ISZERO PUSH2 0x6F3 JUMPI DUP5 PUSH2 0x6D5 JUMPI DUP3 PUSH1 0x1 PUSH1 0x1 PUSH1 0x80 SHL SUB AND DUP8 PUSH1 0x1 PUSH1 0x1 PUSH1 0x80 SHL SUB AND SWAP1 SHR PUSH2 0x6EC JUMP JUMPDEST DUP3 PUSH1 0x1 PUSH1 0x1 PUSH1 0x80 SHL SUB AND DUP8 PUSH1 0x1 PUSH1 0x1 PUSH1 0x80 SHL SUB AND SWAP1 SHL JUMPDEST SWAP7 POP PUSH2 0x68C JUMP JUMPDEST DUP2 DUP8 AND DUP5 OR SWAP4 POP DUP5 PUSH2 0x71A JUMPI DUP3 PUSH1 0x1 PUSH1 0x1 PUSH1 0x80 SHL SUB AND DUP3 PUSH1 0x1 PUSH1 0x1 PUSH1 0x80 SHL SUB AND SWAP1 SHL PUSH2 0x731 JUMP JUMPDEST DUP3 PUSH1 0x1 PUSH1 0x1 PUSH1 0x80 SHL SUB AND DUP3 PUSH1 0x1 PUSH1 0x1 PUSH1 0x80 SHL SUB AND SWAP1 SHR JUMPDEST SWAP2 POP PUSH2 0x666 JUMP JUMPDEST PUSH1 0x0 DUP1 DUP4 PUSH2 0x747 JUMPI PUSH1 0x8 PUSH2 0x74A JUMP JUMPDEST PUSH1 0x20 JUMPDEST PUSH1 0xFF AND SWAP1 POP PUSH1 0x0 DUP4 PUSH2 0x75D JUMPI PUSH1 0xFF PUSH2 0x772 JUMP JUMPDEST DUP5 PUSH2 0x76C JUMPI PUSH4 0xFF000000 PUSH2 0x772 JUMP JUMPDEST PUSH1 0xFF PUSH1 0x60 SHL JUMPDEST PUSH1 0x1 PUSH1 0x1 PUSH1 0x68 SHL SUB AND SWAP1 POP PUSH1 0x0 DUP6 PUSH2 0x78E JUMPI PUSH4 0xFFFFFFFF PUSH2 0x79D JUMP JUMPDEST PUSH13 0xFF000000FF000000FF000000FF JUMPDEST PUSH1 0x1 PUSH1 0x1 PUSH1 0x68 SHL SUB AND SWAP1 POP PUSH1 0x0 DUP6 PUSH2 0x7CA JUMPI DUP4 PUSH1 0x1 PUSH1 0x1 PUSH1 0x80 SHL SUB AND DUP4 PUSH1 0x1 PUSH1 0x1 PUSH1 0x80 SHL SUB AND SWAP1 SHL PUSH2 0x7E1 JUMP JUMPDEST DUP4 PUSH1 0x1 PUSH1 0x1 PUSH1 0x80 SHL SUB AND DUP4 PUSH1 0x1 PUSH1 0x1 PUSH1 0x80 SHL SUB AND SWAP1 SHR JUMPDEST SWAP1 POP PUSH1 0x0 DUP7 PUSH2 0x7F1 JUMPI PUSH1 0x1 PUSH2 0x806 JUMP JUMPDEST DUP8 PUSH2 0x800 JUMPI PUSH4 0x1000000 PUSH2 0x806 JUMP JUMPDEST PUSH1 0x1 PUSH1 0x60 SHL JUMPDEST PUSH1 0x1 PUSH1 0x1 PUSH1 0x68 SHL SUB AND SWAP1 POP JUMPDEST PUSH1 0x1 PUSH1 0x1 PUSH1 0x80 SHL SUB DUP4 DUP11 AND AND ISZERO PUSH2 0x9B4 JUMPI PUSH1 0x0 DUP8 PUSH2 0x847 JUMPI DUP6 PUSH1 0x1 PUSH1 0x1 PUSH1 0x80 SHL SUB AND DUP4 DUP12 AND PUSH1 0x1 PUSH1 0x1 PUSH1 0x80 SHL SUB AND SWAP1 SHR PUSH2 0x860 JUMP JUMPDEST DUP6 PUSH1 0x1 PUSH1 0x1 PUSH1 0x80 SHL SUB AND DUP4 DUP12 AND PUSH1 0x1 PUSH1 0x1 PUSH1 0x80 SHL SUB AND SWAP1 SHL JUMPDEST SWAP1 POP DUP1 PUSH1 0x1 PUSH1 0x1 PUSH1 0x80 SHL SUB AND DUP6 DUP12 AND PUSH1 0x1 PUSH1 0x1 PUSH1 0x80 SHL SUB AND SUB PUSH2 0x8C3 JUMPI DUP8 PUSH2 0x89D JUMPI DUP6 PUSH1 0x1 PUSH1 0x1 PUSH1 0x80 SHL SUB AND DUP11 PUSH1 0x1 PUSH1 0x1 PUSH1 0x80 SHL SUB AND SWAP1 SHR PUSH2 0x8B4 JUMP JUMPDEST DUP6 PUSH1 0x1 PUSH1 0x1 PUSH1 0x80 SHL SUB AND DUP11 PUSH1 0x1 PUSH1 0x1 PUSH1 0x80 SHL SUB AND SWAP1 SHL JUMPDEST SWAP10 POP PUSH2 0x8C0 DUP3 DUP12 PUSH2 0xC43 JUMP JUMPDEST SWAP10 POP JUMPDEST DUP5 DUP11 AND DUP8 OR SWAP7 POP DUP8 PUSH2 0x8EA JUMPI DUP6 PUSH1 0x1 PUSH1 0x1 PUSH1 0x80 SHL SUB AND DUP6 PUSH1 0x1 PUSH1 0x1 PUSH1 0x80 SHL SUB AND SWAP1 SHL PUSH2 0x901 JUMP JUMPDEST DUP6 PUSH1 0x1 PUSH1 0x1 PUSH1 0x80 SHL SUB AND DUP6 PUSH1 0x1 PUSH1 0x1 PUSH1 0x80 SHL SUB AND SWAP1 SHR JUMPDEST SWAP5 POP DUP8 PUSH2 0x923 JUMPI DUP6 PUSH1 0x1 PUSH1 0x1 PUSH1 0x80 SHL SUB AND DUP4 PUSH1 0x1 PUSH1 0x1 PUSH1 0x80 SHL SUB AND SWAP1 SHL PUSH2 0x93A JUMP JUMPDEST DUP6 PUSH1 0x1 PUSH1 0x1 PUSH1 0x80 SHL SUB AND DUP4 PUSH1 0x1 PUSH1 0x1 PUSH1 0x80 SHL SUB AND SWAP1 SHR JUMPDEST SWAP3 POP DUP8 PUSH2 0x95C JUMPI DUP6 PUSH1 0x1 PUSH1 0x1 PUSH1 0x80 SHL SUB AND DUP3 PUSH1 0x1 PUSH1 0x1 PUSH1 0x80 SHL SUB AND SWAP1 SHL PUSH2 0x973 JUMP JUMPDEST DUP6 PUSH1 0x1 PUSH1 0x1 PUSH1 0x80 SHL SUB AND DUP3 PUSH1 0x1 PUSH1 0x1 PUSH1 0x80 SHL SUB AND SWAP1 SHR JUMPDEST SWAP2 POP DUP8 PUSH2 0x995 JUMPI DUP6 PUSH1 0x1 PUSH1 0x1 PUSH1 0x80 SHL SUB AND DUP5 PUSH1 0x1 PUSH1 0x1 PUSH1 0x80 SHL SUB AND SWAP1 SHL PUSH2 0x9AC JUMP JUMPDEST DUP6 PUSH1 0x1 PUSH1 0x1 PUSH1 0x80 SHL SUB AND DUP5 PUSH1 0x1 PUSH1 0x1 PUSH1 0x80 SHL SUB AND SWAP1 SHR JUMPDEST SWAP4 POP POP PUSH2 0x812 JUMP JUMPDEST POP POP POP POP POP SWAP4 SWAP3 POP POP POP JUMP JUMPDEST DUP1 CALLDATALOAD PUSH1 0x1 PUSH1 0x1 PUSH1 0x80 SHL SUB DUP2 AND DUP2 EQ PUSH2 0x9D7 JUMPI PUSH1 0x0 DUP1 REVERT JUMPDEST SWAP2 SWAP1 POP JUMP JUMPDEST DUP1 CALLDATALOAD PUSH1 0xFF DUP2 AND DUP2 EQ PUSH2 0x9D7 JUMPI PUSH1 0x0 DUP1 REVERT JUMPDEST PUSH1 0x0 DUP1 PUSH1 0x0 DUP1 PUSH1 0x80 DUP6 DUP8 SUB SLT ISZERO PUSH2 0xA03 JUMPI PUSH1 0x0 DUP1 REVERT JUMPDEST PUSH2 0xA0C DUP6 PUSH2 0x9C0 JUMP JUMPDEST SWAP4 POP PUSH2 0xA1A PUSH1 0x20 DUP7 ADD PUSH2 0x9DC JUMP JUMPDEST SWAP3 POP PUSH2 0xA28 PUSH1 0x40 DUP7 ADD PUSH2 0x9C0 JUMP JUMPDEST SWAP4 SWAP7 SWAP3 SWAP6 POP SWAP3 SWAP4 PUSH1 0x60 ADD CALLDATALOAD SWAP3 POP POP JUMP JUMPDEST PUSH1 0x0 PUSH1 0x20 DUP3 DUP5 SUB SLT ISZERO PUSH2 0xA4A JUMPI PUSH1 0x0 DUP1 REVERT JUMPDEST PUSH2 0xA53 DUP3 PUSH2 0x9C0 JUMP JUMPDEST SWAP4 SWAP3 POP POP POP JUMP JUMPDEST PUSH1 0x0 DUP1 PUSH1 0x40 DUP4 DUP6 SUB SLT ISZERO PUSH2 0xA6D JUMPI PUSH1 0x0 DUP1 REVERT JUMPDEST PUSH2 0xA76 DUP4 PUSH2 0x9C0 JUMP JUMPDEST SWAP2 POP PUSH2 0xA84 PUSH1 0x20 DUP5 ADD PUSH2 0x9DC JUMP JUMPDEST SWAP1 POP SWAP3 POP SWAP3 SWAP1 POP JUMP JUMPDEST PUSH1 0x0 PUSH1 0x20 DUP3 DUP5 SUB SLT ISZERO PUSH2 0xA9F JUMPI PUSH1 0x0 DUP1 REVERT JUMPDEST POP CALLDATALOAD SWAP2 SWAP1 POP JUMP JUMPDEST DUP1 CALLDATALOAD DUP1 ISZERO ISZERO DUP2 EQ PUSH2 0x9D7 JUMPI PUSH1 0x0 DUP1 REVERT JUMPDEST PUSH1 0x0 DUP1 PUSH1 0x0 PUSH1 0x60 DUP5 DUP7 SUB SLT ISZERO PUSH2 0xACB JUMPI PUSH1 0x0 DUP1 REVERT JUMPDEST PUSH2 0xAD4 DUP5 PUSH2 0x9C0 JUMP JUMPDEST SWAP3 POP PUSH2 0xAE2 PUSH1 0x20 DUP6 ADD PUSH2 0xAA6 JUMP JUMPDEST SWAP2 POP PUSH2 0xAF0 PUSH1 0x40 DUP6 ADD PUSH2 0xAA6 JUMP JUMPDEST SWAP1 POP SWAP3 POP SWAP3 POP SWAP3 JUMP JUMPDEST PUSH1 0x0 DUP1 PUSH1 0x0 PUSH1 0x60 DUP5 DUP7 SUB SLT ISZERO PUSH2 0xB0E JUMPI PUSH1 0x0 DUP1 REVERT JUMPDEST PUSH2 0xB17 DUP5 PUSH2 0x9C0 JUMP JUMPDEST SWAP3 POP PUSH2 0xB25 PUSH1 0x20 DUP6 ADD PUSH2 0x9DC JUMP JUMPDEST SWAP2 POP PUSH2 0xAF0 PUSH1 0x40 DUP6 ADD PUSH2 0x9DC JUMP JUMPDEST PUSH1 0x0 DUP1 PUSH1 0x0 PUSH1 0x60 DUP5 DUP7 SUB SLT ISZERO PUSH2 0xB48 JUMPI PUSH1 0x0 DUP1 REVERT JUMPDEST PUSH2 0xB51 DUP5 PUSH2 0x9C0 JUMP JUMPDEST SWAP3 POP PUSH2 0xB5F PUSH1 0x20 DUP6 ADD PUSH2 0x9DC JUMP JUMPDEST SWAP3 SWAP6 SWAP3 SWAP5 POP POP POP PUSH1 0x40 SWAP2 SWAP1 SWAP2 ADD CALLDATALOAD SWAP1 JUMP JUMPDEST PUSH4 0x4E487B71 PUSH1 0xE0 SHL PUSH1 0x0 MSTORE PUSH1 0x11 PUSH1 0x4 MSTORE PUSH1 0x24 PUSH1 0x0 REVERT JUMPDEST PUSH1 0x1 PUSH1 0x1 PUSH1 0x80 SHL SUB DUP3 DUP2 AND DUP3 DUP3 AND SUB SWAP1 DUP2 GT ISZERO PUSH2 0x288 JUMPI PUSH2 0x288 PUSH2 0xB70 JUMP JUMPDEST PUSH1 0x0 PUSH1 0x1 DUP3 ADD PUSH2 0xBB7 JUMPI PUSH2 0xBB7 PUSH2 0xB70 JUMP JUMPDEST POP PUSH1 0x1 ADD SWAP1 JUMP JUMPDEST PUSH1 0xFF DUP3 DUP2 AND DUP3 DUP3 AND SUB SWAP1 DUP2 GT ISZERO PUSH2 0x288 JUMPI PUSH2 0x288 PUSH2 0xB70 JUMP JUMPDEST PUSH1 0xFF DUP2 DUP2 AND DUP4 DUP3 AND MUL SWAP1 DUP2 AND SWAP1 DUP2 DUP2 EQ PUSH2 0xBF3 JUMPI PUSH2 0xBF3 PUSH2 0xB70 JUMP JUMPDEST POP SWAP3 SWAP2 POP POP JUMP JUMPDEST PUSH4 0x4E487B71 PUSH1 0xE0 SHL PUSH1 0x0 MSTORE PUSH1 0x12 PUSH1 0x4 MSTORE PUSH1 0x24 PUSH1 0x0 REVERT JUMPDEST PUSH1 0x0 DUP3 PUSH2 0xC1F JUMPI PUSH2 0xC1F PUSH2 0xBFA JUMP JUMPDEST POP MOD SWAP1 JUMP JUMPDEST PUSH1 0x0 PUSH1 0xFF DUP3 AND PUSH1 0xFF DUP2 SUB PUSH2 0xC3A JUMPI PUSH2 0xC3A PUSH2 0xB70 JUMP JUMPDEST PUSH1 0x1 ADD SWAP3 SWAP2 POP POP JUMP JUMPDEST PUSH1 0x1 PUSH1 0x1 PUSH1 0x80 SHL SUB DUP2 DUP2 AND DUP4 DUP3 AND ADD SWAP1 DUP2 GT ISZERO PUSH2 0x288 JUMPI PUSH2 0x288 PUSH2 0xB70 JUMP JUMPDEST PUSH1 0x0 PUSH1 0xFF DUP4 AND DUP1 PUSH2 0xC75 JUMPI PUSH2 0xC75 PUSH2 0xBFA JUMP JUMPDEST DUP1 PUSH1 0xFF DUP5 AND MOD SWAP2 POP POP SWAP3 SWAP2 POP POP JUMP JUMPDEST PUSH1 0x0 PUSH1 0x1 PUSH1 0x1 PUSH1 0x80 SHL SUB DUP3 AND PUSH1 0x1 PUSH1 0x1 PUSH1 0x80 SHL SUB DUP2 SUB PUSH2 0xC3A JUMPI PUSH2 0xC3A PUSH2 0xB70 JUMP JUMPDEST PUSH1 0x1 PUSH1 0x1 PUSH1 0x80 SHL SUB DUP2 DUP2 AND DUP4 DUP3 AND MUL SWAP1 DUP2 AND SWAP1 DUP2 DUP2 EQ PUSH2 0xBF3 JUMPI PUSH2 0xBF3 PUSH2 0xB70 JUMP JUMPDEST DUP1 DUP3 MUL DUP2 ISZERO DUP3 DUP3 DIV DUP5 EQ OR PUSH2 0x288 JUMPI PUSH2 0x288 PUSH2 0xB70 JUMP INVALID LOG2 PUSH5 0x6970667358 0x22 SLT KECCAK256 SELFBALANCE STATICCALL 0xD3 0xF8 PUSH9 0xFA8310C26E0E6A0CC2 0x2D KECCAK256 EXTCODEHASH 0x27 0x26 0xB8 OR SLT 0x2F 0xBF MULMOD 0x4D PUSH30 0xD3F8AF4F9264736F6C634300081C00330000000000000000000000000000 "},"methodIdentifiers":{"DOWN()":"01df1995","LEFT()":"64cd1595","RIGHT()":"1af4f970","UP()":"24f4ec51","getStartPosition(bytes32)":"7e8dbaf6","getTile(uint128,uint8)":"54c30fd9","processMove(uint128,bool,bool)":"8def51a1","processMove(uint128,uint8,uint256)":"9aff28fe","setTile(uint128,uint8,uint8)":"918a2a65","validateStartPosition(uint128)":"2b2f6a12","validateTransformation(uint128,uint8,uint128,uint256)":"0be27a04"}}}}}