{"contracts/MEGAETH2048.sol":{"MEGAETH2048":{"abi":[{"inputs":[],"name":"GameBoardInvalid","type":"error"},{"inputs":[],"name":"GameIdUsed","type":"error"},{"inputs":[],"name":"GamePlayed","type":"error"},{"inputs":[],"name":"GamePlayerInvalid","type":"error"},{"anonymous":false,"inputs":[{"indexed":true,"internalType":"address","name":"player","type":"address"},{"indexed":true,"internalType":"bytes32","name":"id","type":"bytes32"},{"indexed":false,"internalType":"uint256","name":"move","type":"uint256"},{"indexed":false,"internalType":"uint256","name":"blockNumber","type":"uint256"}],"name":"MoveConfirmed","type":"event"},{"anonymous":false,"inputs":[{"indexed":true,"internalType":"address","name":"player","type":"address"},{"indexed":true,"internalType":"bytes32","name":"id","type":"bytes32"},{"indexed":false,"internalType":"uint256","name":"board","type":"uint256"}],"name":"NewGame","type":"event"},{"anonymous":false,"inputs":[{"indexed":true,"internalType":"address","name":"player","type":"address"},{"indexed":true,"internalType":"bytes32","name":"id","type":"bytes32"},{"indexed":false,"internalType":"uint256","name":"move","type":"uint256"},{"indexed":false,"internalType":"uint256","name":"result","type":"uint256"}],"name":"NewMove","type":"event"},{"inputs":[{"internalType":"bytes32","name":"gameId","type":"bytes32"},{"internalType":"uint256","name":"moveNumber","type":"uint256"}],"name":"calculateSeed","outputs":[{"internalType":"uint256","name":"","type":"uint256"}],"stateMutability":"pure","type":"function"},{"inputs":[{"internalType":"bytes32","name":"gameHash","type":"bytes32"}],"name":"gameHashOf","outputs":[{"internalType":"bytes32","name":"gameId","type":"bytes32"}],"stateMutability":"view","type":"function"},{"inputs":[{"internalType":"bytes32","name":"gameId","type":"bytes32"}],"name":"getBoard","outputs":[{"internalType":"uint8[16]","name":"boardArr","type":"uint8[16]"},{"internalType":"uint256","name":"nextMoveNumber","type":"uint256"}],"stateMutability":"view","type":"function"},{"inputs":[{"internalType":"bytes32","name":"gameId","type":"bytes32"},{"internalType":"uint256","name":"moveNumber","type":"uint256"}],"name":"isMoveConfirmed","outputs":[{"internalType":"bool","name":"","type":"bool"}],"stateMutability":"view","type":"function"},{"inputs":[{"internalType":"bytes32","name":"gameId","type":"bytes32"}],"name":"latestBoard","outputs":[{"internalType":"uint128","name":"","type":"uint128"}],"stateMutability":"view","type":"function"},{"inputs":[{"internalType":"bytes32","name":"gameId","type":"bytes32"},{"internalType":"uint256","name":"moveNumber","type":"uint256"}],"name":"moveConfirmed","outputs":[{"internalType":"bool","name":"confirmed","type":"bool"}],"stateMutability":"view","type":"function"},{"inputs":[{"internalType":"bytes32","name":"gameId","type":"bytes32"}],"name":"nextMove","outputs":[{"internalType":"uint120","name":"","type":"uint120"}],"stateMutability":"view","type":"function"},{"inputs":[{"internalType":"bytes32","name":"gameId","type":"bytes32"},{"internalType":"uint8","name":"move","type":"uint8"},{"internalType":"uint128","name":"resultBoard","type":"uint128"}],"name":"play","outputs":[],"stateMutability":"nonpayable","type":"function"},{"inputs":[{"internalType":"bytes32","name":"gameId","type":"bytes32"},{"internalType":"uint128[4]","name":"boards","type":"uint128[4]"},{"internalType":"uint8[3]","name":"moves","type":"uint8[3]"}],"name":"startGame","outputs":[],"stateMutability":"nonpayable","type":"function"},{"inputs":[{"internalType":"bytes32","name":"gameId","type":"bytes32"}],"name":"state","outputs":[{"internalType":"uint8","name":"move","type":"uint8"},{"internalType":"uint120","name":"nextMove","type":"uint120"},{"internalType":"uint128","name":"board","type":"uint128"}],"stateMutability":"view","type":"function"}],"evm":{"bytecode":{"linkReferences":{"contracts/LibBoard.sol":{"Board":[{"length":20,"start":884},{"length":20,"start":1746},{"length":20,"start":1929},{"length":20,"start":2770}]}},"object":"6080604052348015600f57600080fd5b50610e548061001f6000396000f3fe608060405234801561001057600080fd5b506004361061009e5760003560e01c80639a987475116100665780639a987475146101b0578063ac88036c146101f6578063bb9df3071461023e578063d878cfbc14610251578063e51b891f1461028b57600080fd5b80631b306ea5146100a357806325c09963146100e657806361d585da146100fb578063658fec9e1461016f57806379cbd23314610182575b600080fd5b6100d16100b1366004610b89565b600260209081526000928352604080842090915290825290205460ff1681565b60405190151581526020015b60405180910390f35b6100f96100f4366004610bd9565b6102ac565b005b61013f610109366004610c17565b60006020819052908152604090205460ff81169061010081046001600160781b031690600160801b90046001600160801b031683565b6040805160ff90941684526001600160781b0390921660208401526001600160801b0316908201526060016100dd565b6100d161017d366004610b89565b610576565b6101a2610190366004610c17565b60016020526000908152604090205481565b6040519081526020016100dd565b6101de6101be366004610c17565b60009081526020819052604090205461010090046001600160781b031690565b6040516001600160781b0390911681526020016100dd565b610226610204366004610c17565b600090815260208190526040902054600160801b90046001600160801b031690565b6040516001600160801b0390911681526020016100dd565b6100f961024c366004610c30565b61059a565b6101a261025f366004610b89565b604080516020808201949094528082019290925280518083038201815260609092019052805191012090565b61029e610299366004610c17565b610a57565b6040516100dd929190610c7d565b3383606081901c82146102fa5760405162461bcd60e51b815260206004820152601160248201527011d85b59541b185e595c925b9d985b1a59607a1b60448201526064015b60405180910390fd5b60008581526020818152604091829020825160608082018552915460ff8116825261010081046001600160781b0316828501819052600160801b9091046001600160801b031682860181905285519485018b9052948401529273__$3bdcb62b59719fa87ec18408dc3f85ab1f$__92630be27a0492899189910160408051808303601f1901815290829052805160209091012060e086901b6001600160e01b03191682526001600160801b03948516600483015260ff9093166024820152921660448301526064820152608401602060405180830381865af41580156103e4573d6000803e3d6000fd5b505050506040513d601f19601f820116820180604052508101906104089190610cba565b6104245760405162461bcd60e51b81526004016102f190610ce3565b600081602001516001600160781b0316905060405180606001604052808760ff1681526020018360200151600161045b9190610d23565b6001600160781b0390811682526001600160801b0380891660209384015260008b815280845260408082208651815488880151988401518616600160801b0298909616610100026001600160801b031990961660ff9091161794909417909216949094179091556002825280832084845290915290819020805460ff1916600117905551879033907f14fe4197a69dbcc73d79fcfd259bd1f097640dd2c2fe016ff232c416e17ce84290610529908a908a9060ff9290921682526001600160801b0316602082015260400190565b60405180910390a360408051828152436020820152889133917faed26e1cc9340165cad07fe9b04a60123395a7d8a6ca901a7400f598c9c03ab6910160405180910390a350505050505050565b600082815260026020908152604080832084845290915290205460ff165b92915050565b3383606081901c82146105e35760405162461bcd60e51b815260206004820152601160248201527011d85b59541b185e595c925b9d985b1a59607a1b60448201526064016102f1565b600085815260208190526040902054600160801b90046001600160801b03161561063c5760405162461bcd60e51b815260206004820152600a60248201526911d85b595259155cd95960b21b60448201526064016102f1565b60008460405160200161064f9190610d42565b60408051601f19818403018152918152815160209283012060008181526001909352912054909150156106b15760405162461bcd60e51b815260206004820152600a60248201526911d85b59541b185e595960b21b60448201526064016102f1565b73__$3bdcb62b59719fa87ec18408dc3f85ab1f$__632b2f6a126106d86020880188610d9d565b6040516001600160e01b031960e084901b1681526001600160801b039091166004820152602401602060405180830381865af415801561071c573d6000803e3d6000fd5b505050506040513d601f19601f820116820180604052508101906107409190610cba565b61075c5760405162461bcd60e51b81526004016102f190610ce3565b60015b60048110156108d15773__$3bdcb62b59719fa87ec18408dc3f85ab1f$__630be27a048761078e600185610db8565b6004811061079e5761079e610d87565b6020020160208101906107b19190610d9d565b876107bd600186610db8565b600381106107cd576107cd610d87565b6020020160208101906107e09190610dcb565b8985600481106107f2576107f2610d87565b6020020160208101906108059190610d9d565b60408051602081018e905290810187905260600160408051808303601f1901815290829052805160209091012060e086901b6001600160e01b03191682526001600160801b03948516600483015260ff9093166024820152921660448301526064820152608401602060405180830381865af4158015610889573d6000803e3d6000fd5b505050506040513d601f19601f820116820180604052508101906108ad9190610cba565b6108c95760405162461bcd60e51b81526004016102f190610ce3565b60010161075f565b5060008181526001602081905260409091208790555b600381116109255760008781526002602090815260408083208484529091529020805460ff191660011790558061091d81610de8565b9150506108e7565b5060408051606080820183529091829161094491908801908801610dcb565b60ff168152600460208201526040016109636080880160608901610d9d565b6001600160801b0390811690915260008881526020818152604091829020845181549286015195909301518416600160801b026001600160781b03909516610100026001600160801b031990921660ff909316929092171790911691909117905585337f3d6c02e74ba05913874ba8d477497510df840bf93bfa5a2a8d8943766678a0e36109f76080890160608a01610d9d565b6040516001600160801b03909116815260200160405180910390a36040805160038152436020820152879133917faed26e1cc9340165cad07fe9b04a60123395a7d8a6ca901a7400f598c9c03ab6910160405180910390a3505050505050565b610a5f610b6a565b600082815260208190526040812054600160801b90046001600160801b0316815b60108160ff161015610b3b576040516354c30fd960e01b81526001600160801b038316600482015260ff8216602482015273__$3bdcb62b59719fa87ec18408dc3f85ab1f$__906354c30fd990604401602060405180830381865af4158015610aed573d6000803e3d6000fd5b505050506040513d601f19601f82011682018060405250810190610b119190610e01565b848260ff1660108110610b2657610b26610d87565b60ff9092166020929092020152600101610a80565b5060008481526020819052604090205461010090046001600160781b03166001600160781b0316915050915091565b6040518061020001604052806010906020820280368337509192915050565b60008060408385031215610b9c57600080fd5b50508035926020909101359150565b60ff81168114610bba57600080fd5b50565b80356001600160801b0381168114610bd457600080fd5b919050565b600080600060608486031215610bee57600080fd5b833592506020840135610c0081610bab565b9150610c0e60408501610bbd565b90509250925092565b600060208284031215610c2957600080fd5b5035919050565b60008060006101008486031215610c4657600080fd5b8335925060a0840185811115610c5b57600080fd5b6020850192508561010086011115610c7257600080fd5b809150509250925092565b6102208101818460005b6010811015610ca957815160ff16835260209283019290910190600101610c87565b505050826102008301529392505050565b600060208284031215610ccc57600080fd5b81518015158114610cdc57600080fd5b9392505050565b60208082526010908201526f11d85b59509bd85c99125b9d985b1a5960821b604082015260600190565b634e487b7160e01b600052601160045260246000fd5b6001600160781b03818116838216019081111561059457610594610d0d565b60008183825b6004811015610d78576001600160801b03610d6283610bbd565b1683526020928301929190910190600101610d48565b50505060808201905092915050565b634e487b7160e01b600052603260045260246000fd5b600060208284031215610daf57600080fd5b610cdc82610bbd565b8181038181111561059457610594610d0d565b600060208284031215610ddd57600080fd5b8135610cdc81610bab565b600060018201610dfa57610dfa610d0d565b5060010190565b600060208284031215610e1357600080fd5b8151610cdc81610bab56fea26469706673582212203e2f7126975662490ca1f06c60740657bbc4024ad6777a263f3d0d0afea553b264736f6c634300081c0033","opcodes":"PUSH1 0x80 PUSH1 0x40 MSTORE CALLVALUE DUP1 ISZERO PUSH1 0xF JUMPI PUSH1 0x0 DUP1 REVERT JUMPDEST POP PUSH2 0xE54 DUP1 PUSH2 0x1F PUSH1 0x0 CODECOPY PUSH1 0x0 RETURN INVALID PUSH1 0x80 PUSH1 0x40 MSTORE CALLVALUE DUP1 ISZERO PUSH2 0x10 JUMPI PUSH1 0x0 DUP1 REVERT JUMPDEST POP PUSH1 0x4 CALLDATASIZE LT PUSH2 0x9E JUMPI PUSH1 0x0 CALLDATALOAD PUSH1 0xE0 SHR DUP1 PUSH4 0x9A987475 GT PUSH2 0x66 JUMPI DUP1 PUSH4 0x9A987475 EQ PUSH2 0x1B0 JUMPI DUP1 PUSH4 0xAC88036C EQ PUSH2 0x1F6 JUMPI DUP1 PUSH4 0xBB9DF307 EQ PUSH2 0x23E JUMPI DUP1 PUSH4 0xD878CFBC EQ PUSH2 0x251 JUMPI DUP1 PUSH4 0xE51B891F EQ PUSH2 0x28B JUMPI PUSH1 0x0 DUP1 REVERT JUMPDEST DUP1 PUSH4 0x1B306EA5 EQ PUSH2 0xA3 JUMPI DUP1 PUSH4 0x25C09963 EQ PUSH2 0xE6 JUMPI DUP1 PUSH4 0x61D585DA EQ PUSH2 0xFB JUMPI DUP1 PUSH4 0x658FEC9E EQ PUSH2 0x16F JUMPI DUP1 PUSH4 0x79CBD233 EQ PUSH2 0x182 JUMPI JUMPDEST PUSH1 0x0 DUP1 REVERT JUMPDEST PUSH2 0xD1 PUSH2 0xB1 CALLDATASIZE PUSH1 0x4 PUSH2 0xB89 JUMP JUMPDEST PUSH1 0x2 PUSH1 0x20 SWAP1 DUP2 MSTORE PUSH1 0x0 SWAP3 DUP4 MSTORE PUSH1 0x40 DUP1 DUP5 KECCAK256 SWAP1 SWAP2 MSTORE SWAP1 DUP3 MSTORE SWAP1 KECCAK256 SLOAD PUSH1 0xFF AND DUP2 JUMP JUMPDEST PUSH1 0x40 MLOAD SWAP1 ISZERO ISZERO DUP2 MSTORE PUSH1 0x20 ADD JUMPDEST PUSH1 0x40 MLOAD DUP1 SWAP2 SUB SWAP1 RETURN JUMPDEST PUSH2 0xF9 PUSH2 0xF4 CALLDATASIZE PUSH1 0x4 PUSH2 0xBD9 JUMP JUMPDEST PUSH2 0x2AC JUMP JUMPDEST STOP JUMPDEST PUSH2 0x13F PUSH2 0x109 CALLDATASIZE PUSH1 0x4 PUSH2 0xC17 JUMP JUMPDEST PUSH1 0x0 PUSH1 0x20 DUP2 SWAP1 MSTORE SWAP1 DUP2 MSTORE PUSH1 0x40 SWAP1 KECCAK256 SLOAD PUSH1 0xFF DUP2 AND SWAP1 PUSH2 0x100 DUP2 DIV PUSH1 0x1 PUSH1 0x1 PUSH1 0x78 SHL SUB AND SWAP1 PUSH1 0x1 PUSH1 0x80 SHL SWAP1 DIV PUSH1 0x1 PUSH1 0x1 PUSH1 0x80 SHL SUB AND DUP4 JUMP JUMPDEST PUSH1 0x40 DUP1 MLOAD PUSH1 0xFF SWAP1 SWAP5 AND DUP5 MSTORE PUSH1 0x1 PUSH1 0x1 PUSH1 0x78 SHL SUB SWAP1 SWAP3 AND PUSH1 0x20 DUP5 ADD MSTORE PUSH1 0x1 PUSH1 0x1 PUSH1 0x80 SHL SUB AND SWAP1 DUP3 ADD MSTORE PUSH1 0x60 ADD PUSH2 0xDD JUMP JUMPDEST PUSH2 0xD1 PUSH2 0x17D CALLDATASIZE PUSH1 0x4 PUSH2 0xB89 JUMP JUMPDEST PUSH2 0x576 JUMP JUMPDEST PUSH2 0x1A2 PUSH2 0x190 CALLDATASIZE PUSH1 0x4 PUSH2 0xC17 JUMP JUMPDEST PUSH1 0x1 PUSH1 0x20 MSTORE PUSH1 0x0 SWAP1 DUP2 MSTORE PUSH1 0x40 SWAP1 KECCAK256 SLOAD DUP2 JUMP JUMPDEST PUSH1 0x40 MLOAD SWAP1 DUP2 MSTORE PUSH1 0x20 ADD PUSH2 0xDD JUMP JUMPDEST PUSH2 0x1DE PUSH2 0x1BE CALLDATASIZE PUSH1 0x4 PUSH2 0xC17 JUMP JUMPDEST PUSH1 0x0 SWAP1 DUP2 MSTORE PUSH1 0x20 DUP2 SWAP1 MSTORE PUSH1 0x40 SWAP1 KECCAK256 SLOAD PUSH2 0x100 SWAP1 DIV PUSH1 0x1 PUSH1 0x1 PUSH1 0x78 SHL SUB AND SWAP1 JUMP JUMPDEST PUSH1 0x40 MLOAD PUSH1 0x1 PUSH1 0x1 PUSH1 0x78 SHL SUB SWAP1 SWAP2 AND DUP2 MSTORE PUSH1 0x20 ADD PUSH2 0xDD JUMP JUMPDEST PUSH2 0x226 PUSH2 0x204 CALLDATASIZE PUSH1 0x4 PUSH2 0xC17 JUMP JUMPDEST PUSH1 0x0 SWAP1 DUP2 MSTORE PUSH1 0x20 DUP2 SWAP1 MSTORE PUSH1 0x40 SWAP1 KECCAK256 SLOAD PUSH1 0x1 PUSH1 0x80 SHL SWAP1 DIV PUSH1 0x1 PUSH1 0x1 PUSH1 0x80 SHL SUB AND SWAP1 JUMP JUMPDEST PUSH1 0x40 MLOAD PUSH1 0x1 PUSH1 0x1 PUSH1 0x80 SHL SUB SWAP1 SWAP2 AND DUP2 MSTORE PUSH1 0x20 ADD PUSH2 0xDD JUMP JUMPDEST PUSH2 0xF9 PUSH2 0x24C CALLDATASIZE PUSH1 0x4 PUSH2 0xC30 JUMP JUMPDEST PUSH2 0x59A JUMP JUMPDEST PUSH2 0x1A2 PUSH2 0x25F CALLDATASIZE PUSH1 0x4 PUSH2 0xB89 JUMP JUMPDEST PUSH1 0x40 DUP1 MLOAD PUSH1 0x20 DUP1 DUP3 ADD SWAP5 SWAP1 SWAP5 MSTORE DUP1 DUP3 ADD SWAP3 SWAP1 SWAP3 MSTORE DUP1 MLOAD DUP1 DUP4 SUB DUP3 ADD DUP2 MSTORE PUSH1 0x60 SWAP1 SWAP3 ADD SWAP1 MSTORE DUP1 MLOAD SWAP2 ADD KECCAK256 SWAP1 JUMP JUMPDEST PUSH2 0x29E PUSH2 0x299 CALLDATASIZE PUSH1 0x4 PUSH2 0xC17 JUMP JUMPDEST PUSH2 0xA57 JUMP JUMPDEST PUSH1 0x40 MLOAD PUSH2 0xDD SWAP3 SWAP2 SWAP1 PUSH2 0xC7D JUMP JUMPDEST CALLER DUP4 PUSH1 0x60 DUP2 SWAP1 SHR DUP3 EQ PUSH2 0x2FA JUMPI PUSH1 0x40 MLOAD PUSH3 0x461BCD PUSH1 0xE5 SHL DUP2 MSTORE PUSH1 0x20 PUSH1 0x4 DUP3 ADD MSTORE PUSH1 0x11 PUSH1 0x24 DUP3 ADD MSTORE PUSH17 0x11D85B59541B185E595C925B9D985B1A59 PUSH1 0x7A SHL PUSH1 0x44 DUP3 ADD MSTORE PUSH1 0x64 ADD JUMPDEST PUSH1 0x40 MLOAD DUP1 SWAP2 SUB SWAP1 REVERT JUMPDEST PUSH1 0x0 DUP6 DUP2 MSTORE PUSH1 0x20 DUP2 DUP2 MSTORE PUSH1 0x40 SWAP2 DUP3 SWAP1 KECCAK256 DUP3 MLOAD PUSH1 0x60 DUP1 DUP3 ADD DUP6 MSTORE SWAP2 SLOAD PUSH1 0xFF DUP2 AND DUP3 MSTORE PUSH2 0x100 DUP2 DIV PUSH1 0x1 PUSH1 0x1 PUSH1 0x78 SHL SUB AND DUP3 DUP6 ADD DUP2 SWAP1 MSTORE PUSH1 0x1 PUSH1 0x80 SHL SWAP1 SWAP2 DIV PUSH1 0x1 PUSH1 0x1 PUSH1 0x80 SHL SUB AND DUP3 DUP7 ADD DUP2 SWAP1 MSTORE DUP6 MLOAD SWAP5 DUP6 ADD DUP12 SWAP1 MSTORE SWAP5 DUP5 ADD MSTORE SWAP3 PUSH20 0x0 SWAP3 PUSH4 0xBE27A04 SWAP3 DUP10 SWAP2 DUP10 SWAP2 ADD PUSH1 0x40 DUP1 MLOAD DUP1 DUP4 SUB PUSH1 0x1F NOT ADD DUP2 MSTORE SWAP1 DUP3 SWAP1 MSTORE DUP1 MLOAD PUSH1 0x20 SWAP1 SWAP2 ADD KECCAK256 PUSH1 0xE0 DUP7 SWAP1 SHL PUSH1 0x1 PUSH1 0x1 PUSH1 0xE0 SHL SUB NOT AND DUP3 MSTORE PUSH1 0x1 PUSH1 0x1 PUSH1 0x80 SHL SUB SWAP5 DUP6 AND PUSH1 0x4 DUP4 ADD MSTORE PUSH1 0xFF SWAP1 SWAP4 AND PUSH1 0x24 DUP3 ADD MSTORE SWAP3 AND PUSH1 0x44 DUP4 ADD MSTORE PUSH1 0x64 DUP3 ADD MSTORE PUSH1 0x84 ADD PUSH1 0x20 PUSH1 0x40 MLOAD DUP1 DUP4 SUB DUP2 DUP7 GAS DELEGATECALL ISZERO DUP1 ISZERO PUSH2 0x3E4 JUMPI RETURNDATASIZE PUSH1 0x0 DUP1 RETURNDATACOPY RETURNDATASIZE PUSH1 0x0 REVERT JUMPDEST POP POP POP POP PUSH1 0x40 MLOAD RETURNDATASIZE PUSH1 0x1F NOT PUSH1 0x1F DUP3 ADD AND DUP3 ADD DUP1 PUSH1 0x40 MSTORE POP DUP2 ADD SWAP1 PUSH2 0x408 SWAP2 SWAP1 PUSH2 0xCBA JUMP JUMPDEST PUSH2 0x424 JUMPI PUSH1 0x40 MLOAD PUSH3 0x461BCD PUSH1 0xE5 SHL DUP2 MSTORE PUSH1 0x4 ADD PUSH2 0x2F1 SWAP1 PUSH2 0xCE3 JUMP JUMPDEST PUSH1 0x0 DUP2 PUSH1 0x20 ADD MLOAD PUSH1 0x1 PUSH1 0x1 PUSH1 0x78 SHL SUB AND SWAP1 POP PUSH1 0x40 MLOAD DUP1 PUSH1 0x60 ADD PUSH1 0x40 MSTORE DUP1 DUP8 PUSH1 0xFF AND DUP2 MSTORE PUSH1 0x20 ADD DUP4 PUSH1 0x20 ADD MLOAD PUSH1 0x1 PUSH2 0x45B SWAP2 SWAP1 PUSH2 0xD23 JUMP JUMPDEST PUSH1 0x1 PUSH1 0x1 PUSH1 0x78 SHL SUB SWAP1 DUP2 AND DUP3 MSTORE PUSH1 0x1 PUSH1 0x1 PUSH1 0x80 SHL SUB DUP1 DUP10 AND PUSH1 0x20 SWAP4 DUP5 ADD MSTORE PUSH1 0x0 DUP12 DUP2 MSTORE DUP1 DUP5 MSTORE PUSH1 0x40 DUP1 DUP3 KECCAK256 DUP7 MLOAD DUP2 SLOAD DUP9 DUP9 ADD MLOAD SWAP9 DUP5 ADD MLOAD DUP7 AND PUSH1 0x1 PUSH1 0x80 SHL MUL SWAP9 SWAP1 SWAP7 AND PUSH2 0x100 MUL PUSH1 0x1 PUSH1 0x1 PUSH1 0x80 SHL SUB NOT SWAP1 SWAP7 AND PUSH1 0xFF SWAP1 SWAP2 AND OR SWAP5 SWAP1 SWAP5 OR SWAP1 SWAP3 AND SWAP5 SWAP1 SWAP5 OR SWAP1 SWAP2 SSTORE PUSH1 0x2 DUP3 MSTORE DUP1 DUP4 KECCAK256 DUP5 DUP5 MSTORE SWAP1 SWAP2 MSTORE SWAP1 DUP2 SWAP1 KECCAK256 DUP1 SLOAD PUSH1 0xFF NOT AND PUSH1 0x1 OR SWAP1 SSTORE MLOAD DUP8 SWAP1 CALLER SWAP1 PUSH32 0x14FE4197A69DBCC73D79FCFD259BD1F097640DD2C2FE016FF232C416E17CE842 SWAP1 PUSH2 0x529 SWAP1 DUP11 SWAP1 DUP11 SWAP1 PUSH1 0xFF SWAP3 SWAP1 SWAP3 AND DUP3 MSTORE PUSH1 0x1 PUSH1 0x1 PUSH1 0x80 SHL SUB AND PUSH1 0x20 DUP3 ADD MSTORE PUSH1 0x40 ADD SWAP1 JUMP JUMPDEST PUSH1 0x40 MLOAD DUP1 SWAP2 SUB SWAP1 LOG3 PUSH1 0x40 DUP1 MLOAD DUP3 DUP2 MSTORE NUMBER PUSH1 0x20 DUP3 ADD MSTORE DUP9 SWAP2 CALLER SWAP2 PUSH32 0xAED26E1CC9340165CAD07FE9B04A60123395A7D8A6CA901A7400F598C9C03AB6 SWAP2 ADD PUSH1 0x40 MLOAD DUP1 SWAP2 SUB SWAP1 LOG3 POP POP POP POP POP POP POP JUMP JUMPDEST PUSH1 0x0 DUP3 DUP2 MSTORE PUSH1 0x2 PUSH1 0x20 SWAP1 DUP2 MSTORE PUSH1 0x40 DUP1 DUP4 KECCAK256 DUP5 DUP5 MSTORE SWAP1 SWAP2 MSTORE SWAP1 KECCAK256 SLOAD PUSH1 0xFF AND JUMPDEST SWAP3 SWAP2 POP POP JUMP JUMPDEST CALLER DUP4 PUSH1 0x60 DUP2 SWAP1 SHR DUP3 EQ PUSH2 0x5E3 JUMPI PUSH1 0x40 MLOAD PUSH3 0x461BCD PUSH1 0xE5 SHL DUP2 MSTORE PUSH1 0x20 PUSH1 0x4 DUP3 ADD MSTORE PUSH1 0x11 PUSH1 0x24 DUP3 ADD MSTORE PUSH17 0x11D85B59541B185E595C925B9D985B1A59 PUSH1 0x7A SHL PUSH1 0x44 DUP3 ADD MSTORE PUSH1 0x64 ADD PUSH2 0x2F1 JUMP JUMPDEST PUSH1 0x0 DUP6 DUP2 MSTORE PUSH1 0x20 DUP2 SWAP1 MSTORE PUSH1 0x40 SWAP1 KECCAK256 SLOAD PUSH1 0x1 PUSH1 0x80 SHL SWAP1 DIV PUSH1 0x1 PUSH1 0x1 PUSH1 0x80 SHL SUB AND ISZERO PUSH2 0x63C JUMPI PUSH1 0x40 MLOAD PUSH3 0x461BCD PUSH1 0xE5 SHL DUP2 MSTORE PUSH1 0x20 PUSH1 0x4 DUP3 ADD MSTORE PUSH1 0xA PUSH1 0x24 DUP3 ADD MSTORE PUSH10 0x11D85B595259155CD959 PUSH1 0xB2 SHL PUSH1 0x44 DUP3 ADD MSTORE PUSH1 0x64 ADD PUSH2 0x2F1 JUMP JUMPDEST PUSH1 0x0 DUP5 PUSH1 0x40 MLOAD PUSH1 0x20 ADD PUSH2 0x64F SWAP2 SWAP1 PUSH2 0xD42 JUMP JUMPDEST PUSH1 0x40 DUP1 MLOAD PUSH1 0x1F NOT DUP2 DUP5 SUB ADD DUP2 MSTORE SWAP2 DUP2 MSTORE DUP2 MLOAD PUSH1 0x20 SWAP3 DUP4 ADD KECCAK256 PUSH1 0x0 DUP2 DUP2 MSTORE PUSH1 0x1 SWAP1 SWAP4 MSTORE SWAP2 KECCAK256 SLOAD SWAP1 SWAP2 POP ISZERO PUSH2 0x6B1 JUMPI PUSH1 0x40 MLOAD PUSH3 0x461BCD PUSH1 0xE5 SHL DUP2 MSTORE PUSH1 0x20 PUSH1 0x4 DUP3 ADD MSTORE PUSH1 0xA PUSH1 0x24 DUP3 ADD MSTORE PUSH10 0x11D85B59541B185E5959 PUSH1 0xB2 SHL PUSH1 0x44 DUP3 ADD MSTORE PUSH1 0x64 ADD PUSH2 0x2F1 JUMP JUMPDEST PUSH20 0x0 PUSH4 0x2B2F6A12 PUSH2 0x6D8 PUSH1 0x20 DUP9 ADD DUP9 PUSH2 0xD9D JUMP JUMPDEST PUSH1 0x40 MLOAD PUSH1 0x1 PUSH1 0x1 PUSH1 0xE0 SHL SUB NOT PUSH1 0xE0 DUP5 SWAP1 SHL AND DUP2 MSTORE PUSH1 0x1 PUSH1 0x1 PUSH1 0x80 SHL SUB SWAP1 SWAP2 AND PUSH1 0x4 DUP3 ADD MSTORE PUSH1 0x24 ADD PUSH1 0x20 PUSH1 0x40 MLOAD DUP1 DUP4 SUB DUP2 DUP7 GAS DELEGATECALL ISZERO DUP1 ISZERO PUSH2 0x71C JUMPI RETURNDATASIZE PUSH1 0x0 DUP1 RETURNDATACOPY RETURNDATASIZE PUSH1 0x0 REVERT JUMPDEST POP POP POP POP PUSH1 0x40 MLOAD RETURNDATASIZE PUSH1 0x1F NOT PUSH1 0x1F DUP3 ADD AND DUP3 ADD DUP1 PUSH1 0x40 MSTORE POP DUP2 ADD SWAP1 PUSH2 0x740 SWAP2 SWAP1 PUSH2 0xCBA JUMP JUMPDEST PUSH2 0x75C JUMPI PUSH1 0x40 MLOAD PUSH3 0x461BCD PUSH1 0xE5 SHL DUP2 MSTORE PUSH1 0x4 ADD PUSH2 0x2F1 SWAP1 PUSH2 0xCE3 JUMP JUMPDEST PUSH1 0x1 JUMPDEST PUSH1 0x4 DUP2 LT ISZERO PUSH2 0x8D1 JUMPI PUSH20 0x0 PUSH4 0xBE27A04 DUP8 PUSH2 0x78E PUSH1 0x1 DUP6 PUSH2 0xDB8 JUMP JUMPDEST PUSH1 0x4 DUP2 LT PUSH2 0x79E JUMPI PUSH2 0x79E PUSH2 0xD87 JUMP JUMPDEST PUSH1 0x20 MUL ADD PUSH1 0x20 DUP2 ADD SWAP1 PUSH2 0x7B1 SWAP2 SWAP1 PUSH2 0xD9D JUMP JUMPDEST DUP8 PUSH2 0x7BD PUSH1 0x1 DUP7 PUSH2 0xDB8 JUMP JUMPDEST PUSH1 0x3 DUP2 LT PUSH2 0x7CD JUMPI PUSH2 0x7CD PUSH2 0xD87 JUMP JUMPDEST PUSH1 0x20 MUL ADD PUSH1 0x20 DUP2 ADD SWAP1 PUSH2 0x7E0 SWAP2 SWAP1 PUSH2 0xDCB JUMP JUMPDEST DUP10 DUP6 PUSH1 0x4 DUP2 LT PUSH2 0x7F2 JUMPI PUSH2 0x7F2 PUSH2 0xD87 JUMP JUMPDEST PUSH1 0x20 MUL ADD PUSH1 0x20 DUP2 ADD SWAP1 PUSH2 0x805 SWAP2 SWAP1 PUSH2 0xD9D JUMP JUMPDEST PUSH1 0x40 DUP1 MLOAD PUSH1 0x20 DUP2 ADD DUP15 SWAP1 MSTORE SWAP1 DUP2 ADD DUP8 SWAP1 MSTORE PUSH1 0x60 ADD PUSH1 0x40 DUP1 MLOAD DUP1 DUP4 SUB PUSH1 0x1F NOT ADD DUP2 MSTORE SWAP1 DUP3 SWAP1 MSTORE DUP1 MLOAD PUSH1 0x20 SWAP1 SWAP2 ADD KECCAK256 PUSH1 0xE0 DUP7 SWAP1 SHL PUSH1 0x1 PUSH1 0x1 PUSH1 0xE0 SHL SUB NOT AND DUP3 MSTORE PUSH1 0x1 PUSH1 0x1 PUSH1 0x80 SHL SUB SWAP5 DUP6 AND PUSH1 0x4 DUP4 ADD MSTORE PUSH1 0xFF SWAP1 SWAP4 AND PUSH1 0x24 DUP3 ADD MSTORE SWAP3 AND PUSH1 0x44 DUP4 ADD MSTORE PUSH1 0x64 DUP3 ADD MSTORE PUSH1 0x84 ADD PUSH1 0x20 PUSH1 0x40 MLOAD DUP1 DUP4 SUB DUP2 DUP7 GAS DELEGATECALL ISZERO DUP1 ISZERO PUSH2 0x889 JUMPI RETURNDATASIZE PUSH1 0x0 DUP1 RETURNDATACOPY RETURNDATASIZE PUSH1 0x0 REVERT JUMPDEST POP POP POP POP PUSH1 0x40 MLOAD RETURNDATASIZE PUSH1 0x1F NOT PUSH1 0x1F DUP3 ADD AND DUP3 ADD DUP1 PUSH1 0x40 MSTORE POP DUP2 ADD SWAP1 PUSH2 0x8AD SWAP2 SWAP1 PUSH2 0xCBA JUMP JUMPDEST PUSH2 0x8C9 JUMPI PUSH1 0x40 MLOAD PUSH3 0x461BCD PUSH1 0xE5 SHL DUP2 MSTORE PUSH1 0x4 ADD PUSH2 0x2F1 SWAP1 PUSH2 0xCE3 JUMP JUMPDEST PUSH1 0x1 ADD PUSH2 0x75F JUMP JUMPDEST POP PUSH1 0x0 DUP2 DUP2 MSTORE PUSH1 0x1 PUSH1 0x20 DUP2 SWAP1 MSTORE PUSH1 0x40 SWAP1 SWAP2 KECCAK256 DUP8 SWAP1 SSTORE JUMPDEST PUSH1 0x3 DUP2 GT PUSH2 0x925 JUMPI PUSH1 0x0 DUP8 DUP2 MSTORE PUSH1 0x2 PUSH1 0x20 SWAP1 DUP2 MSTORE PUSH1 0x40 DUP1 DUP4 KECCAK256 DUP5 DUP5 MSTORE SWAP1 SWAP2 MSTORE SWAP1 KECCAK256 DUP1 SLOAD PUSH1 0xFF NOT AND PUSH1 0x1 OR SWAP1 SSTORE DUP1 PUSH2 0x91D DUP2 PUSH2 0xDE8 JUMP JUMPDEST SWAP2 POP POP PUSH2 0x8E7 JUMP JUMPDEST POP PUSH1 0x40 DUP1 MLOAD PUSH1 0x60 DUP1 DUP3 ADD DUP4 MSTORE SWAP1 SWAP2 DUP3 SWAP2 PUSH2 0x944 SWAP2 SWAP1 DUP9 ADD SWAP1 DUP9 ADD PUSH2 0xDCB JUMP JUMPDEST PUSH1 0xFF AND DUP2 MSTORE PUSH1 0x4 PUSH1 0x20 DUP3 ADD MSTORE PUSH1 0x40 ADD PUSH2 0x963 PUSH1 0x80 DUP9 ADD PUSH1 0x60 DUP10 ADD PUSH2 0xD9D JUMP JUMPDEST PUSH1 0x1 PUSH1 0x1 PUSH1 0x80 SHL SUB SWAP1 DUP2 AND SWAP1 SWAP2 MSTORE PUSH1 0x0 DUP9 DUP2 MSTORE PUSH1 0x20 DUP2 DUP2 MSTORE PUSH1 0x40 SWAP2 DUP3 SWAP1 KECCAK256 DUP5 MLOAD DUP2 SLOAD SWAP3 DUP7 ADD MLOAD SWAP6 SWAP1 SWAP4 ADD MLOAD DUP5 AND PUSH1 0x1 PUSH1 0x80 SHL MUL PUSH1 0x1 PUSH1 0x1 PUSH1 0x78 SHL SUB SWAP1 SWAP6 AND PUSH2 0x100 MUL PUSH1 0x1 PUSH1 0x1 PUSH1 0x80 SHL SUB NOT SWAP1 SWAP3 AND PUSH1 0xFF SWAP1 SWAP4 AND SWAP3 SWAP1 SWAP3 OR OR SWAP1 SWAP2 AND SWAP2 SWAP1 SWAP2 OR SWAP1 SSTORE DUP6 CALLER PUSH32 0x3D6C02E74BA05913874BA8D477497510DF840BF93BFA5A2A8D8943766678A0E3 PUSH2 0x9F7 PUSH1 0x80 DUP10 ADD PUSH1 0x60 DUP11 ADD PUSH2 0xD9D JUMP JUMPDEST PUSH1 0x40 MLOAD PUSH1 0x1 PUSH1 0x1 PUSH1 0x80 SHL SUB SWAP1 SWAP2 AND DUP2 MSTORE PUSH1 0x20 ADD PUSH1 0x40 MLOAD DUP1 SWAP2 SUB SWAP1 LOG3 PUSH1 0x40 DUP1 MLOAD PUSH1 0x3 DUP2 MSTORE NUMBER PUSH1 0x20 DUP3 ADD MSTORE DUP8 SWAP2 CALLER SWAP2 PUSH32 0xAED26E1CC9340165CAD07FE9B04A60123395A7D8A6CA901A7400F598C9C03AB6 SWAP2 ADD PUSH1 0x40 MLOAD DUP1 SWAP2 SUB SWAP1 LOG3 POP POP POP POP POP POP JUMP JUMPDEST PUSH2 0xA5F PUSH2 0xB6A JUMP JUMPDEST PUSH1 0x0 DUP3 DUP2 MSTORE PUSH1 0x20 DUP2 SWAP1 MSTORE PUSH1 0x40 DUP2 KECCAK256 SLOAD PUSH1 0x1 PUSH1 0x80 SHL SWAP1 DIV PUSH1 0x1 PUSH1 0x1 PUSH1 0x80 SHL SUB AND DUP2 JUMPDEST PUSH1 0x10 DUP2 PUSH1 0xFF AND LT ISZERO PUSH2 0xB3B JUMPI PUSH1 0x40 MLOAD PUSH4 0x54C30FD9 PUSH1 0xE0 SHL DUP2 MSTORE PUSH1 0x1 PUSH1 0x1 PUSH1 0x80 SHL SUB DUP4 AND PUSH1 0x4 DUP3 ADD MSTORE PUSH1 0xFF DUP3 AND PUSH1 0x24 DUP3 ADD MSTORE PUSH20 0x0 SWAP1 PUSH4 0x54C30FD9 SWAP1 PUSH1 0x44 ADD PUSH1 0x20 PUSH1 0x40 MLOAD DUP1 DUP4 SUB DUP2 DUP7 GAS DELEGATECALL ISZERO DUP1 ISZERO PUSH2 0xAED JUMPI RETURNDATASIZE PUSH1 0x0 DUP1 RETURNDATACOPY RETURNDATASIZE PUSH1 0x0 REVERT JUMPDEST POP POP POP POP PUSH1 0x40 MLOAD RETURNDATASIZE PUSH1 0x1F NOT PUSH1 0x1F DUP3 ADD AND DUP3 ADD DUP1 PUSH1 0x40 MSTORE POP DUP2 ADD SWAP1 PUSH2 0xB11 SWAP2 SWAP1 PUSH2 0xE01 JUMP JUMPDEST DUP5 DUP3 PUSH1 0xFF AND PUSH1 0x10 DUP2 LT PUSH2 0xB26 JUMPI PUSH2 0xB26 PUSH2 0xD87 JUMP JUMPDEST PUSH1 0xFF SWAP1 SWAP3 AND PUSH1 0x20 SWAP3 SWAP1 SWAP3 MUL ADD MSTORE PUSH1 0x1 ADD PUSH2 0xA80 JUMP JUMPDEST POP PUSH1 0x0 DUP5 DUP2 MSTORE PUSH1 0x20 DUP2 SWAP1 MSTORE PUSH1 0x40 SWAP1 KECCAK256 SLOAD PUSH2 0x100 SWAP1 DIV PUSH1 0x1 PUSH1 0x1 PUSH1 0x78 SHL SUB AND PUSH1 0x1 PUSH1 0x1 PUSH1 0x78 SHL SUB AND SWAP2 POP POP SWAP2 POP SWAP2 JUMP JUMPDEST PUSH1 0x40 MLOAD DUP1 PUSH2 0x200 ADD PUSH1 0x40 MSTORE DUP1 PUSH1 0x10 SWAP1 PUSH1 0x20 DUP3 MUL DUP1 CALLDATASIZE DUP4 CALLDATACOPY POP SWAP2 SWAP3 SWAP2 POP POP JUMP JUMPDEST PUSH1 0x0 DUP1 PUSH1 0x40 DUP4 DUP6 SUB SLT ISZERO PUSH2 0xB9C JUMPI PUSH1 0x0 DUP1 REVERT JUMPDEST POP POP DUP1 CALLDATALOAD SWAP3 PUSH1 0x20 SWAP1 SWAP2 ADD CALLDATALOAD SWAP2 POP JUMP JUMPDEST PUSH1 0xFF DUP2 AND DUP2 EQ PUSH2 0xBBA JUMPI PUSH1 0x0 DUP1 REVERT JUMPDEST POP JUMP JUMPDEST DUP1 CALLDATALOAD PUSH1 0x1 PUSH1 0x1 PUSH1 0x80 SHL SUB DUP2 AND DUP2 EQ PUSH2 0xBD4 JUMPI PUSH1 0x0 DUP1 REVERT JUMPDEST SWAP2 SWAP1 POP JUMP JUMPDEST PUSH1 0x0 DUP1 PUSH1 0x0 PUSH1 0x60 DUP5 DUP7 SUB SLT ISZERO PUSH2 0xBEE JUMPI PUSH1 0x0 DUP1 REVERT JUMPDEST DUP4 CALLDATALOAD SWAP3 POP PUSH1 0x20 DUP5 ADD CALLDATALOAD PUSH2 0xC00 DUP2 PUSH2 0xBAB JUMP JUMPDEST SWAP2 POP PUSH2 0xC0E PUSH1 0x40 DUP6 ADD PUSH2 0xBBD JUMP JUMPDEST SWAP1 POP SWAP3 POP SWAP3 POP SWAP3 JUMP JUMPDEST PUSH1 0x0 PUSH1 0x20 DUP3 DUP5 SUB SLT ISZERO PUSH2 0xC29 JUMPI PUSH1 0x0 DUP1 REVERT JUMPDEST POP CALLDATALOAD SWAP2 SWAP1 POP JUMP JUMPDEST PUSH1 0x0 DUP1 PUSH1 0x0 PUSH2 0x100 DUP5 DUP7 SUB SLT ISZERO PUSH2 0xC46 JUMPI PUSH1 0x0 DUP1 REVERT JUMPDEST DUP4 CALLDATALOAD SWAP3 POP PUSH1 0xA0 DUP5 ADD DUP6 DUP2 GT ISZERO PUSH2 0xC5B JUMPI PUSH1 0x0 DUP1 REVERT JUMPDEST PUSH1 0x20 DUP6 ADD SWAP3 POP DUP6 PUSH2 0x100 DUP7 ADD GT ISZERO PUSH2 0xC72 JUMPI PUSH1 0x0 DUP1 REVERT JUMPDEST DUP1 SWAP2 POP POP SWAP3 POP SWAP3 POP SWAP3 JUMP JUMPDEST PUSH2 0x220 DUP2 ADD DUP2 DUP5 PUSH1 0x0 JUMPDEST PUSH1 0x10 DUP2 LT ISZERO PUSH2 0xCA9 JUMPI DUP2 MLOAD PUSH1 0xFF AND DUP4 MSTORE PUSH1 0x20 SWAP3 DUP4 ADD SWAP3 SWAP1 SWAP2 ADD SWAP1 PUSH1 0x1 ADD PUSH2 0xC87 JUMP JUMPDEST POP POP POP DUP3 PUSH2 0x200 DUP4 ADD MSTORE SWAP4 SWAP3 POP POP POP JUMP JUMPDEST PUSH1 0x0 PUSH1 0x20 DUP3 DUP5 SUB SLT ISZERO PUSH2 0xCCC JUMPI PUSH1 0x0 DUP1 REVERT JUMPDEST DUP2 MLOAD DUP1 ISZERO ISZERO DUP2 EQ PUSH2 0xCDC JUMPI PUSH1 0x0 DUP1 REVERT JUMPDEST SWAP4 SWAP3 POP POP POP JUMP JUMPDEST PUSH1 0x20 DUP1 DUP3 MSTORE PUSH1 0x10 SWAP1 DUP3 ADD MSTORE PUSH16 0x11D85B59509BD85C99125B9D985B1A59 PUSH1 0x82 SHL PUSH1 0x40 DUP3 ADD MSTORE PUSH1 0x60 ADD SWAP1 JUMP JUMPDEST PUSH4 0x4E487B71 PUSH1 0xE0 SHL PUSH1 0x0 MSTORE PUSH1 0x11 PUSH1 0x4 MSTORE PUSH1 0x24 PUSH1 0x0 REVERT JUMPDEST PUSH1 0x1 PUSH1 0x1 PUSH1 0x78 SHL SUB DUP2 DUP2 AND DUP4 DUP3 AND ADD SWAP1 DUP2 GT ISZERO PUSH2 0x594 JUMPI PUSH2 0x594 PUSH2 0xD0D JUMP JUMPDEST PUSH1 0x0 DUP2 DUP4 DUP3 JUMPDEST PUSH1 0x4 DUP2 LT ISZERO PUSH2 0xD78 JUMPI PUSH1 0x1 PUSH1 0x1 PUSH1 0x80 SHL SUB PUSH2 0xD62 DUP4 PUSH2 0xBBD JUMP JUMPDEST AND DUP4 MSTORE PUSH1 0x20 SWAP3 DUP4 ADD SWAP3 SWAP2 SWAP1 SWAP2 ADD SWAP1 PUSH1 0x1 ADD PUSH2 0xD48 JUMP JUMPDEST POP POP POP PUSH1 0x80 DUP3 ADD SWAP1 POP SWAP3 SWAP2 POP POP JUMP JUMPDEST PUSH4 0x4E487B71 PUSH1 0xE0 SHL PUSH1 0x0 MSTORE PUSH1 0x32 PUSH1 0x4 MSTORE PUSH1 0x24 PUSH1 0x0 REVERT JUMPDEST PUSH1 0x0 PUSH1 0x20 DUP3 DUP5 SUB SLT ISZERO PUSH2 0xDAF JUMPI PUSH1 0x0 DUP1 REVERT JUMPDEST PUSH2 0xCDC DUP3 PUSH2 0xBBD JUMP JUMPDEST DUP2 DUP2 SUB DUP2 DUP2 GT ISZERO PUSH2 0x594 JUMPI PUSH2 0x594 PUSH2 0xD0D JUMP JUMPDEST PUSH1 0x0 PUSH1 0x20 DUP3 DUP5 SUB SLT ISZERO PUSH2 0xDDD JUMPI PUSH1 0x0 DUP1 REVERT JUMPDEST DUP2 CALLDATALOAD PUSH2 0xCDC DUP2 PUSH2 0xBAB JUMP JUMPDEST PUSH1 0x0 PUSH1 0x1 DUP3 ADD PUSH2 0xDFA JUMPI PUSH2 0xDFA PUSH2 0xD0D JUMP JUMPDEST POP PUSH1 0x1 ADD SWAP1 JUMP JUMPDEST PUSH1 0x0 PUSH1 0x20 DUP3 DUP5 SUB SLT ISZERO PUSH2 0xE13 JUMPI PUSH1 0x0 DUP1 REVERT JUMPDEST DUP2 MLOAD PUSH2 0xCDC DUP2 PUSH2 0xBAB JUMP INVALID LOG2 PUSH5 0x6970667358 0x22 SLT KECCAK256 RETURNDATACOPY 0x2F PUSH18 0x26975662490CA1F06C60740657BBC4024AD6 PUSH24 0x7A263F3D0D0AFEA553B264736F6C634300081C0033000000 "},"methodIdentifiers":{"calculateSeed(bytes32,uint256)":"d878cfbc","gameHashOf(bytes32)":"79cbd233","getBoard(bytes32)":"e51b891f","isMoveConfirmed(bytes32,uint256)":"658fec9e","latestBoard(bytes32)":"ac88036c","moveConfirmed(bytes32,uint256)":"1b306ea5","nextMove(bytes32)":"9a987475","play(bytes32,uint8,uint128)":"25c09963","startGame(bytes32,uint128[4],uint8[3])":"bb9df307","state(bytes32)":"61d585da"}}}}}