{
  "_format": "hh-sol-artifact-1",
  "contractName": "MEGAETH2048",
  "sourceName": "contracts/MEGAETH2048.sol",
  "abi": [
    {
      "inputs": [],
      "name": "GameBoardInvalid",
      "type": "error"
    },
    {
      "inputs": [],
      "name": "GameIdUsed",
      "type": "error"
    },
    {
      "inputs": [],
      "name": "GamePlayed",
      "type": "error"
    },
    {
      "inputs": [],
      "name": "GamePlayerInvalid",
      "type": "error"
    },
    {
      "anonymous": false,
      "inputs": [
        {
          "indexed": true,
          "internalType": "address",
          "name": "player",
          "type": "address"
        },
        {
          "indexed": true,
          "internalType": "bytes32",
          "name": "id",
          "type": "bytes32"
        },
        {
          "indexed": false,
          "internalType": "uint256",
          "name": "move",
          "type": "uint256"
        },
        {
          "indexed": false,
          "internalType": "uint256",
          "name": "blockNumber",
          "type": "uint256"
        }
      ],
      "name": "MoveConfirmed",
      "type": "event"
    },
    {
      "anonymous": false,
      "inputs": [
        {
          "indexed": true,
          "internalType": "address",
          "name": "player",
          "type": "address"
        },
        {
          "indexed": true,
          "internalType": "bytes32",
          "name": "id",
          "type": "bytes32"
        },
        {
          "indexed": false,
          "internalType": "uint256",
          "name": "board",
          "type": "uint256"
        }
      ],
      "name": "NewGame",
      "type": "event"
    },
    {
      "anonymous": false,
      "inputs": [
        {
          "indexed": true,
          "internalType": "address",
          "name": "player",
          "type": "address"
        },
        {
          "indexed": true,
          "internalType": "bytes32",
          "name": "id",
          "type": "bytes32"
        },
        {
          "indexed": false,
          "internalType": "uint256",
          "name": "move",
          "type": "uint256"
        },
        {
          "indexed": false,
          "internalType": "uint256",
          "name": "result",
          "type": "uint256"
        }
      ],
      "name": "NewMove",
      "type": "event"
    },
    {
      "inputs": [
        {
          "internalType": "bytes32",
          "name": "gameId",
          "type": "bytes32"
        },
        {
          "internalType": "uint256",
          "name": "moveNumber",
          "type": "uint256"
        }
      ],
      "name": "calculateSeed",
      "outputs": [
        {
          "internalType": "uint256",
          "name": "",
          "type": "uint256"
        }
      ],
      "stateMutability": "pure",
      "type": "function"
    },
    {
      "inputs": [
        {
          "internalType": "bytes32",
          "name": "gameHash",
          "type": "bytes32"
        }
      ],
      "name": "gameHashOf",
      "outputs": [
        {
          "internalType": "bytes32",
          "name": "gameId",
          "type": "bytes32"
        }
      ],
      "stateMutability": "view",
      "type": "function"
    },
    {
      "inputs": [
        {
          "internalType": "bytes32",
          "name": "gameId",
          "type": "bytes32"
        }
      ],
      "name": "getBoard",
      "outputs": [
        {
          "internalType": "uint8[16]",
          "name": "boardArr",
          "type": "uint8[16]"
        },
        {
          "internalType": "uint256",
          "name": "nextMoveNumber",
          "type": "uint256"
        }
      ],
      "stateMutability": "view",
      "type": "function"
    },
    {
      "inputs": [
        {
          "internalType": "bytes32",
          "name": "gameId",
          "type": "bytes32"
        },
        {
          "internalType": "uint256",
          "name": "moveNumber",
          "type": "uint256"
        }
      ],
      "name": "isMoveConfirmed",
      "outputs": [
        {
          "internalType": "bool",
          "name": "",
          "type": "bool"
        }
      ],
      "stateMutability": "view",
      "type": "function"
    },
    {
      "inputs": [
        {
          "internalType": "bytes32",
          "name": "gameId",
          "type": "bytes32"
        }
      ],
      "name": "latestBoard",
      "outputs": [
        {
          "internalType": "uint128",
          "name": "",
          "type": "uint128"
        }
      ],
      "stateMutability": "view",
      "type": "function"
    },
    {
      "inputs": [
        {
          "internalType": "bytes32",
          "name": "gameId",
          "type": "bytes32"
        },
        {
          "internalType": "uint256",
          "name": "moveNumber",
          "type": "uint256"
        }
      ],
      "name": "moveConfirmed",
      "outputs": [
        {
          "internalType": "bool",
          "name": "confirmed",
          "type": "bool"
        }
      ],
      "stateMutability": "view",
      "type": "function"
    },
    {
      "inputs": [
        {
          "internalType": "bytes32",
          "name": "gameId",
          "type": "bytes32"
        }
      ],
      "name": "nextMove",
      "outputs": [
        {
          "internalType": "uint120",
          "name": "",
          "type": "uint120"
        }
      ],
      "stateMutability": "view",
      "type": "function"
    },
    {
      "inputs": [
        {
          "internalType": "bytes32",
          "name": "gameId",
          "type": "bytes32"
        },
        {
          "internalType": "uint8",
          "name": "move",
          "type": "uint8"
        },
        {
          "internalType": "uint128",
          "name": "resultBoard",
          "type": "uint128"
        }
      ],
      "name": "play",
      "outputs": [],
      "stateMutability": "nonpayable",
      "type": "function"
    },
    {
      "inputs": [
        {
          "internalType": "bytes32",
          "name": "gameId",
          "type": "bytes32"
        },
        {
          "internalType": "uint128[4]",
          "name": "boards",
          "type": "uint128[4]"
        },
        {
          "internalType": "uint8[3]",
          "name": "moves",
          "type": "uint8[3]"
        }
      ],
      "name": "startGame",
      "outputs": [],
      "stateMutability": "nonpayable",
      "type": "function"
    },
    {
      "inputs": [
        {
          "internalType": "bytes32",
          "name": "gameId",
          "type": "bytes32"
        }
      ],
      "name": "state",
      "outputs": [
        {
          "internalType": "uint8",
          "name": "move",
          "type": "uint8"
        },
        {
          "internalType": "uint120",
          "name": "nextMove",
          "type": "uint120"
        },
        {
          "internalType": "uint128",
          "name": "board",
          "type": "uint128"
        }
      ],
      "stateMutability": "view",
      "type": "function"
    }
  ],
  "bytecode": "0x6080604052348015600f57600080fd5b50610e548061001f6000396000f3fe608060405234801561001057600080fd5b506004361061009e5760003560e01c80639a987475116100665780639a987475146101b0578063ac88036c146101f6578063bb9df3071461023e578063d878cfbc14610251578063e51b891f1461028b57600080fd5b80631b306ea5146100a357806325c09963146100e657806361d585da146100fb578063658fec9e1461016f57806379cbd23314610182575b600080fd5b6100d16100b1366004610b89565b600260209081526000928352604080842090915290825290205460ff1681565b60405190151581526020015b60405180910390f35b6100f96100f4366004610bd9565b6102ac565b005b61013f610109366004610c17565b60006020819052908152604090205460ff81169061010081046001600160781b031690600160801b90046001600160801b031683565b6040805160ff90941684526001600160781b0390921660208401526001600160801b0316908201526060016100dd565b6100d161017d366004610b89565b610576565b6101a2610190366004610c17565b60016020526000908152604090205481565b6040519081526020016100dd565b6101de6101be366004610c17565b60009081526020819052604090205461010090046001600160781b031690565b6040516001600160781b0390911681526020016100dd565b610226610204366004610c17565b600090815260208190526040902054600160801b90046001600160801b031690565b6040516001600160801b0390911681526020016100dd565b6100f961024c366004610c30565b61059a565b6101a261025f366004610b89565b604080516020808201949094528082019290925280518083038201815260609092019052805191012090565b61029e610299366004610c17565b610a57565b6040516100dd929190610c7d565b3383606081901c82146102fa5760405162461bcd60e51b815260206004820152601160248201527011d85b59541b185e595c925b9d985b1a59607a1b60448201526064015b60405180910390fd5b60008581526020818152604091829020825160608082018552915460ff8116825261010081046001600160781b0316828501819052600160801b9091046001600160801b031682860181905285519485018b9052948401529273__$3bdcb62b59719fa87ec18408dc3f85ab1f$__92630be27a0492899189910160408051808303601f1901815290829052805160209091012060e086901b6001600160e01b03191682526001600160801b03948516600483015260ff9093166024820152921660448301526064820152608401602060405180830381865af41580156103e4573d6000803e3d6000fd5b505050506040513d601f19601f820116820180604052508101906104089190610cba565b6104245760405162461bcd60e51b81526004016102f190610ce3565b600081602001516001600160781b0316905060405180606001604052808760ff1681526020018360200151600161045b9190610d23565b6001600160781b0390811682526001600160801b0380891660209384015260008b815280845260408082208651815488880151988401518616600160801b0298909616610100026001600160801b031990961660ff9091161794909417909216949094179091556002825280832084845290915290819020805460ff1916600117905551879033907f14fe4197a69dbcc73d79fcfd259bd1f097640dd2c2fe016ff232c416e17ce84290610529908a908a9060ff9290921682526001600160801b0316602082015260400190565b60405180910390a360408051828152436020820152889133917faed26e1cc9340165cad07fe9b04a60123395a7d8a6ca901a7400f598c9c03ab6910160405180910390a350505050505050565b600082815260026020908152604080832084845290915290205460ff165b92915050565b3383606081901c82146105e35760405162461bcd60e51b815260206004820152601160248201527011d85b59541b185e595c925b9d985b1a59607a1b60448201526064016102f1565b600085815260208190526040902054600160801b90046001600160801b03161561063c5760405162461bcd60e51b815260206004820152600a60248201526911d85b595259155cd95960b21b60448201526064016102f1565b60008460405160200161064f9190610d42565b60408051601f19818403018152918152815160209283012060008181526001909352912054909150156106b15760405162461bcd60e51b815260206004820152600a60248201526911d85b59541b185e595960b21b60448201526064016102f1565b73__$3bdcb62b59719fa87ec18408dc3f85ab1f$__632b2f6a126106d86020880188610d9d565b6040516001600160e01b031960e084901b1681526001600160801b039091166004820152602401602060405180830381865af415801561071c573d6000803e3d6000fd5b505050506040513d601f19601f820116820180604052508101906107409190610cba565b61075c5760405162461bcd60e51b81526004016102f190610ce3565b60015b60048110156108d15773__$3bdcb62b59719fa87ec18408dc3f85ab1f$__630be27a048761078e600185610db8565b6004811061079e5761079e610d87565b6020020160208101906107b19190610d9d565b876107bd600186610db8565b600381106107cd576107cd610d87565b6020020160208101906107e09190610dcb565b8985600481106107f2576107f2610d87565b6020020160208101906108059190610d9d565b60408051602081018e905290810187905260600160408051808303601f1901815290829052805160209091012060e086901b6001600160e01b03191682526001600160801b03948516600483015260ff9093166024820152921660448301526064820152608401602060405180830381865af4158015610889573d6000803e3d6000fd5b505050506040513d601f19601f820116820180604052508101906108ad9190610cba565b6108c95760405162461bcd60e51b81526004016102f190610ce3565b60010161075f565b5060008181526001602081905260409091208790555b600381116109255760008781526002602090815260408083208484529091529020805460ff191660011790558061091d81610de8565b9150506108e7565b5060408051606080820183529091829161094491908801908801610dcb565b60ff168152600460208201526040016109636080880160608901610d9d565b6001600160801b0390811690915260008881526020818152604091829020845181549286015195909301518416600160801b026001600160781b03909516610100026001600160801b031990921660ff909316929092171790911691909117905585337f3d6c02e74ba05913874ba8d477497510df840bf93bfa5a2a8d8943766678a0e36109f76080890160608a01610d9d565b6040516001600160801b03909116815260200160405180910390a36040805160038152436020820152879133917faed26e1cc9340165cad07fe9b04a60123395a7d8a6ca901a7400f598c9c03ab6910160405180910390a3505050505050565b610a5f610b6a565b600082815260208190526040812054600160801b90046001600160801b0316815b60108160ff161015610b3b576040516354c30fd960e01b81526001600160801b038316600482015260ff8216602482015273__$3bdcb62b59719fa87ec18408dc3f85ab1f$__906354c30fd990604401602060405180830381865af4158015610aed573d6000803e3d6000fd5b505050506040513d601f19601f82011682018060405250810190610b119190610e01565b848260ff1660108110610b2657610b26610d87565b60ff9092166020929092020152600101610a80565b5060008481526020819052604090205461010090046001600160781b03166001600160781b0316915050915091565b6040518061020001604052806010906020820280368337509192915050565b60008060408385031215610b9c57600080fd5b50508035926020909101359150565b60ff81168114610bba57600080fd5b50565b80356001600160801b0381168114610bd457600080fd5b919050565b600080600060608486031215610bee57600080fd5b833592506020840135610c0081610bab565b9150610c0e60408501610bbd565b90509250925092565b600060208284031215610c2957600080fd5b5035919050565b60008060006101008486031215610c4657600080fd5b8335925060a0840185811115610c5b57600080fd5b6020850192508561010086011115610c7257600080fd5b809150509250925092565b6102208101818460005b6010811015610ca957815160ff16835260209283019290910190600101610c87565b505050826102008301529392505050565b600060208284031215610ccc57600080fd5b81518015158114610cdc57600080fd5b9392505050565b60208082526010908201526f11d85b59509bd85c99125b9d985b1a5960821b604082015260600190565b634e487b7160e01b600052601160045260246000fd5b6001600160781b03818116838216019081111561059457610594610d0d565b60008183825b6004811015610d78576001600160801b03610d6283610bbd565b1683526020928301929190910190600101610d48565b50505060808201905092915050565b634e487b7160e01b600052603260045260246000fd5b600060208284031215610daf57600080fd5b610cdc82610bbd565b8181038181111561059457610594610d0d565b600060208284031215610ddd57600080fd5b8135610cdc81610bab565b600060018201610dfa57610dfa610d0d565b5060010190565b600060208284031215610e1357600080fd5b8151610cdc81610bab56fea26469706673582212203e2f7126975662490ca1f06c60740657bbc4024ad6777a263f3d0d0afea553b264736f6c634300081c0033",
  "linkReferences": {
    "contracts/LibBoard.sol": {
      "Board": [
        {
          "length": 20,
          "start": 884
        },
        {
          "length": 20,
          "start": 1746
        },
        {
          "length": 20,
          "start": 1929
        },
        {
          "length": 20,
          "start": 2770
        }
      ]
    }
  },
  "deployedLinkReferences": {
    "contracts/LibBoard.sol": {
      "Board": [
        {
          "length": 20,
          "start": 853
        },
        {
          "length": 20,
          "start": 1715
        },
        {
          "length": 20,
          "start": 1898
        },
        {
          "length": 20,
          "start": 2739
        }
      ]
    }
  }
}